{
  "contractName": "IndexContract",
  "abi": [
    {
      "constant": true,
      "inputs": [
        {
          "name": "",
          "type": "address"
        }
      ],
      "name": "balances",
      "outputs": [
        {
          "name": "",
          "type": "uint256"
        }
      ],
      "payable": false,
      "stateMutability": "view",
      "type": "function"
    },
    {
      "constant": true,
      "inputs": [],
      "name": "owner",
      "outputs": [
        {
          "name": "",
          "type": "address"
        }
      ],
      "payable": false,
      "stateMutability": "view",
      "type": "function"
    },
    {
      "constant": true,
      "inputs": [],
      "name": "_lastRebalanced",
      "outputs": [
        {
          "name": "",
          "type": "uint256"
        }
      ],
      "payable": false,
      "stateMutability": "view",
      "type": "function"
    },
    {
      "constant": true,
      "inputs": [],
      "name": "_rebalanceInBlocks",
      "outputs": [
        {
          "name": "",
          "type": "uint256"
        }
      ],
      "payable": false,
      "stateMutability": "view",
      "type": "function"
    },
    {
      "constant": true,
      "inputs": [
        {
          "name": "",
          "type": "uint256"
        }
      ],
      "name": "_tokens",
      "outputs": [
        {
          "name": "addr",
          "type": "address"
        },
        {
          "name": "weight",
          "type": "uint256"
        },
        {
          "name": "curr_quantity",
          "type": "uint256"
        }
      ],
      "payable": false,
      "stateMutability": "view",
      "type": "function"
    },
    {
      "constant": false,
      "inputs": [
        {
          "name": "newOwner",
          "type": "address"
        }
      ],
      "name": "transferOwnership",
      "outputs": [],
      "payable": false,
      "stateMutability": "nonpayable",
      "type": "function"
    },
    {
      "inputs": [
        {
          "name": "addresses",
          "type": "address[]"
        },
        {
          "name": "weights",
          "type": "uint256[]"
        },
        {
          "name": "rebalanceInBlocks",
          "type": "uint256"
        },
        {
          "name": "proxyAddress",
          "type": "address"
        },
        {
          "name": "exchangeAddress",
          "type": "address"
        },
        {
          "name": "WETHAddress",
          "type": "address"
        },
        {
          "name": "diyindex",
          "type": "address"
        }
      ],
      "payable": false,
      "stateMutability": "nonpayable",
      "type": "constructor"
    },
    {
      "anonymous": false,
      "inputs": [
        {
          "indexed": false,
          "name": "tokenAddress",
          "type": "address"
        }
      ],
      "name": "allowanceSet",
      "type": "event"
    },
    {
      "anonymous": false,
      "inputs": [
        {
          "indexed": true,
          "name": "previousOwner",
          "type": "address"
        },
        {
          "indexed": true,
          "name": "newOwner",
          "type": "address"
        }
      ],
      "name": "OwnershipTransferred",
      "type": "event"
    },
    {
      "constant": false,
      "inputs": [
        {
          "name": "amount",
          "type": "uint256"
        }
      ],
      "name": "deposit_weth",
      "outputs": [
        {
          "name": "success",
          "type": "bool"
        }
      ],
      "payable": false,
      "stateMutability": "nonpayable",
      "type": "function"
    },
    {
      "constant": true,
      "inputs": [],
      "name": "get_last_rebalanced",
      "outputs": [
        {
          "name": "",
          "type": "uint256"
        }
      ],
      "payable": false,
      "stateMutability": "view",
      "type": "function"
    },
    {
      "constant": true,
      "inputs": [],
      "name": "rebalance_in_blocks",
      "outputs": [
        {
          "name": "",
          "type": "uint256"
        }
      ],
      "payable": false,
      "stateMutability": "view",
      "type": "function"
    },
    {
      "constant": false,
      "inputs": [],
      "name": "withdraw",
      "outputs": [
        {
          "name": "success",
          "type": "bool"
        }
      ],
      "payable": false,
      "stateMutability": "nonpayable",
      "type": "function"
    },
    {
      "constant": true,
      "inputs": [],
      "name": "token_addresses",
      "outputs": [
        {
          "name": "",
          "type": "address[]"
        }
      ],
      "payable": false,
      "stateMutability": "view",
      "type": "function"
    },
    {
      "constant": true,
      "inputs": [],
      "name": "token_weight",
      "outputs": [
        {
          "name": "",
          "type": "uint256[]"
        }
      ],
      "payable": false,
      "stateMutability": "view",
      "type": "function"
    },
    {
      "constant": true,
      "inputs": [],
      "name": "token_quantities",
      "outputs": [
        {
          "name": "",
          "type": "uint256[]"
        }
      ],
      "payable": false,
      "stateMutability": "view",
      "type": "function"
    },
    {
      "constant": false,
      "inputs": [
        {
          "name": "tokenAddress",
          "type": "address"
        }
      ],
      "name": "set_allowances",
      "outputs": [],
      "payable": false,
      "stateMutability": "nonpayable",
      "type": "function"
    },
    {
      "constant": false,
      "inputs": [
        {
          "name": "addresses",
          "type": "address[5]"
        },
        {
          "name": "values",
          "type": "uint256[7]"
        },
        {
          "name": "v",
          "type": "uint8"
        },
        {
          "name": "r",
          "type": "bytes32"
        },
        {
          "name": "s",
          "type": "bytes32"
        },
        {
          "name": "block_height",
          "type": "uint256"
        }
      ],
      "name": "make_exchange_trade",
      "outputs": [
        {
          "name": "success",
          "type": "bool"
        }
      ],
      "payable": false,
      "stateMutability": "nonpayable",
      "type": "function"
    }
  ],
  "bytecode": "0x608060405260008060146101000a81548160ff02191690831515021790555034801561002a57600080fd5b50604051611ba1380380611ba1833981018060405281019080805182019291906020018051820192919060200180519060200190929190805190602001909291908051906020019092919080519060200190929190805190602001909291905050506000336000806101000a81548173ffffffffffffffffffffffffffffffffffffffff021916908373ffffffffffffffffffffffffffffffffffffffff160217905550600088511115156100de57600080fd5b865188511415156100ee57600080fd5b8560028190555084600460006101000a81548173ffffffffffffffffffffffffffffffffffffffff021916908373ffffffffffffffffffffffffffffffffffffffff16021790555083600660006101000a81548173ffffffffffffffffffffffffffffffffffffffff021916908373ffffffffffffffffffffffffffffffffffffffff16021790555082600560006101000a81548173ffffffffffffffffffffffffffffffffffffffff021916908373ffffffffffffffffffffffffffffffffffffffff16021790555081600760006101000a81548173ffffffffffffffffffffffffffffffffffffffff021916908373ffffffffffffffffffffffffffffffffffffffff1602179055506000600381905550600090505b87518110156103085760016060604051908101604052808a8481518110151561022b57fe5b9060200190602002015173ffffffffffffffffffffffffffffffffffffffff168152602001898481518110151561025e57fe5b90602001906020020151815260200160008152509080600181540180825580915050906001820390600052602060002090600302016000909192909190915060008201518160000160006101000a81548173ffffffffffffffffffffffffffffffffffffffff021916908373ffffffffffffffffffffffffffffffffffffffff16021790555060208201518160010155604082015181600201555050508080600101915050610206565b50505050505050506118828061031f6000396000f3006080604052600436106100db576000357c0100000000000000000000000000000000000000000000000000000000900463ffffffff1680630346c75d146100e057806327e235e31461014c5780633ccfd60b146101a357806348a1063c146101d257806383a2b6b7146101fd578063893aaa20146102425780638b554de71461030e5780638da5cb5b1461037a578063934d8325146103d1578063a770aeed14610414578063bbdd52771461043f578063c41868151461046a578063cf67b88f146104d6578063ed70554d14610501578063f2fde38b1461057c575b600080fd5b3480156100ec57600080fd5b506100f56105bf565b6040518080602001828103825283818151815260200191508051906020019060200280838360005b8381101561013857808201518184015260208101905061011d565b505050509050019250505060405180910390f35b34801561015857600080fd5b5061018d600480360381019080803573ffffffffffffffffffffffffffffffffffffffff1690602001909291905050506106ad565b6040518082815260200191505060405180910390f35b3480156101af57600080fd5b506101b86106c5565b604051808215151515815260200191505060405180910390f35b3480156101de57600080fd5b506101e761097c565b6040518082815260200191505060405180910390f35b34801561020957600080fd5b5061022860048036038101908080359060200190929190505050610986565b604051808215151515815260200191505060405180910390f35b34801561024e57600080fd5b506102f46004803603810190808060a001906005806020026040519081016040528092919082600560200280828437820191505050505091929192908060e00190600780602002604051908101604052809291908260076020028082843782019150505050509192919290803560ff1690602001909291908035600019169060200190929190803560001916906020019092919080359060200190929190505050610bda565b604051808215151515815260200191505060405180910390f35b34801561031a57600080fd5b50610323610fb6565b6040518080602001828103825283818151815260200191508051906020019060200280838360005b8381101561036657808201518184015260208101905061034b565b505050509050019250505060405180910390f35b34801561038657600080fd5b5061038f611056565b604051808273ffffffffffffffffffffffffffffffffffffffff1673ffffffffffffffffffffffffffffffffffffffff16815260200191505060405180910390f35b3480156103dd57600080fd5b50610412600480360381019080803573ffffffffffffffffffffffffffffffffffffffff16906020019092919050505061107b565b005b34801561042057600080fd5b506104296114a4565b6040518082815260200191505060405180910390f35b34801561044b57600080fd5b506104546114aa565b6040518082815260200191505060405180910390f35b34801561047657600080fd5b5061047f6114b0565b6040518080602001828103825283818151815260200191508051906020019060200280838360005b838110156104c25780820151818401526020810190506104a7565b505050509050019250505060405180910390f35b3480156104e257600080fd5b506104eb611550565b6040518082815260200191505060405180910390f35b34801561050d57600080fd5b5061052c6004803603810190808035906020019092919050505061155a565b604051808473ffffffffffffffffffffffffffffffffffffffff1673ffffffffffffffffffffffffffffffffffffffff168152602001838152602001828152602001935050505060405180910390f35b34801561058857600080fd5b506105bd600480360381019080803573ffffffffffffffffffffffffffffffffffffffff1690602001909291905050506115b3565b005b60608060006001805490506040519080825280602002602001820160405280156105f85781602001602082028038833980820191505090505b509150600090505b6001805490508110156106a55760018181548110151561061c57fe5b906000526020600020906003020160000160009054906101000a900473ffffffffffffffffffffffffffffffffffffffff16828281518110151561065c57fe5b9060200190602002019073ffffffffffffffffffffffffffffffffffffffff16908173ffffffffffffffffffffffffffffffffffffffff16815250508080600101915050610600565b819250505090565b60086020528060005260406000206000915090505481565b6000806106d06117d8565b6000806000809054906101000a900473ffffffffffffffffffffffffffffffffffffffff1673ffffffffffffffffffffffffffffffffffffffff163373ffffffffffffffffffffffffffffffffffffffff1614151561072e57600080fd5b600060149054906101000a900460ff1615151561074a57600080fd5b6001600060146101000a81548160ff021916908315150217905550600093505b6001805490508410156109575760018481548110151561078657fe5b9060005260206000209060030201606060405190810160405290816000820160009054906101000a900473ffffffffffffffffffffffffffffffffffffffff1673ffffffffffffffffffffffffffffffffffffffff1673ffffffffffffffffffffffffffffffffffffffff1681526020016001820154815260200160028201548152505092508260000151915082604001519050600060018581548110151561082b57fe5b9060005260206000209060030201600201819055508173ffffffffffffffffffffffffffffffffffffffff1663a9059cbb6000809054906101000a900473ffffffffffffffffffffffffffffffffffffffff16836040518363ffffffff167c0100000000000000000000000000000000000000000000000000000000028152600401808373ffffffffffffffffffffffffffffffffffffffff1673ffffffffffffffffffffffffffffffffffffffff16815260200182815260200192505050602060405180830381600087803b15801561090457600080fd5b505af1158015610918573d6000803e3d6000fd5b505050506040513d602081101561092e57600080fd5b8101908080519060200190929190505050151561094a57600080fd5b838060010194505061076a565b6001945060008060146101000a81548160ff0219169083151502179055505050505090565b6000600354905090565b6000806000806000809054906101000a900473ffffffffffffffffffffffffffffffffffffffff1673ffffffffffffffffffffffffffffffffffffffff163373ffffffffffffffffffffffffffffffffffffffff161415156109e757600080fd5b6000851115156109f657600080fd5b610a21600560009054906101000a900473ffffffffffffffffffffffffffffffffffffffff16611708565b8093508194505050811515610a3557600080fd5b600560009054906101000a900473ffffffffffffffffffffffffffffffffffffffff1690508073ffffffffffffffffffffffffffffffffffffffff166323b872dd3330886040518463ffffffff167c0100000000000000000000000000000000000000000000000000000000028152600401808473ffffffffffffffffffffffffffffffffffffffff1673ffffffffffffffffffffffffffffffffffffffff1681526020018373ffffffffffffffffffffffffffffffffffffffff1673ffffffffffffffffffffffffffffffffffffffff1681526020018281526020019350505050602060405180830381600087803b158015610b3157600080fd5b505af1158015610b45573d6000803e3d6000fd5b505050506040513d6020811015610b5b57600080fd5b81019080805190602001909291905050501515610b7757600080fd5b610baa85600185815481101515610b8a57fe5b9060005260206000209060030201600201546117bc90919063ffffffff16565b600184815481101515610bb957fe5b90600052602060002090600302016002018190555060019350505050919050565b6000610be4611810565b610bec611833565b6000600760009054906101000a900473ffffffffffffffffffffffffffffffffffffffff1673ffffffffffffffffffffffffffffffffffffffff163373ffffffffffffffffffffffffffffffffffffffff16141515610c4a57600080fd5b60a0604051908101604052808b6000600581101515610c6557fe5b602002015173ffffffffffffffffffffffffffffffffffffffff1673ffffffffffffffffffffffffffffffffffffffff1681526020018b6001600581101515610caa57fe5b602002015173ffffffffffffffffffffffffffffffffffffffff1673ffffffffffffffffffffffffffffffffffffffff1681526020018b6002600581101515610cef57fe5b602002015173ffffffffffffffffffffffffffffffffffffffff1673ffffffffffffffffffffffffffffffffffffffff1681526020018b6003600581101515610d3457fe5b602002015173ffffffffffffffffffffffffffffffffffffffff1673ffffffffffffffffffffffffffffffffffffffff1681526020018b6004600581101515610d7957fe5b602002015173ffffffffffffffffffffffffffffffffffffffff1673ffffffffffffffffffffffffffffffffffffffff16815250925060c0604051908101604052808a6000600781101515610dca57fe5b602002015181526020018a6001600781101515610de357fe5b602002015181526020018a6002600781101515610dfc57fe5b602002015181526020018a6003600781101515610e1557fe5b602002015181526020018a6004600781101515610e2e57fe5b602002015181526020018a6005600781101515610e4757fe5b60200201518152509150886006600781101515610e6057fe5b60200201519050600660009054906101000a900473ffffffffffffffffffffffffffffffffffffffff1673ffffffffffffffffffffffffffffffffffffffff1663741bcc938484848c8c8c6040518763ffffffff167c01000000000000000000000000000000000000000000000000000000000281526004018087600560200280838360005b83811015610f01578082015181840152602081019050610ee6565b5050505090500186600660200280838360005b83811015610f2f578082015181840152602081019050610f14565b505050509050018581526020018460ff1660ff168152602001836000191660001916815260200182600019166000191681526020019650505050505050600060405180830381600087803b158015610f8657600080fd5b505af1158015610f9a573d6000803e3d6000fd5b5050505084600381905550600193505050509695505050505050565b6060806000600180549050604051908082528060200260200182016040528015610fef5781602001602082028038833980820191505090505b509150600090505b60018054905081101561104e5760018181548110151561101357fe5b906000526020600020906003020160010154828281518110151561103357fe5b90602001906020020181815250508080600101915050610ff7565b819250505090565b6000809054906101000a900473ffffffffffffffffffffffffffffffffffffffff1681565b60008060009054906101000a900473ffffffffffffffffffffffffffffffffffffffff1673ffffffffffffffffffffffffffffffffffffffff163373ffffffffffffffffffffffffffffffffffffffff161415156110d857600080fd5b8190508073ffffffffffffffffffffffffffffffffffffffff1663095ea7b3600460009054906101000a900473ffffffffffffffffffffffffffffffffffffffff167fffffffffffffffffffffffffffffffffffffffffffffffffffffffffffffffff6040518363ffffffff167c0100000000000000000000000000000000000000000000000000000000028152600401808373ffffffffffffffffffffffffffffffffffffffff1673ffffffffffffffffffffffffffffffffffffffff16815260200182815260200192505050602060405180830381600087803b1580156111c057600080fd5b505af11580156111d4573d6000803e3d6000fd5b505050506040513d60208110156111ea57600080fd5b8101908080519060200190929190505050508073ffffffffffffffffffffffffffffffffffffffff1663095ea7b36000809054906101000a900473ffffffffffffffffffffffffffffffffffffffff167fffffffffffffffffffffffffffffffffffffffffffffffffffffffffffffffff6040518363ffffffff167c0100000000000000000000000000000000000000000000000000000000028152600401808373ffffffffffffffffffffffffffffffffffffffff1673ffffffffffffffffffffffffffffffffffffffff16815260200182815260200192505050602060405180830381600087803b1580156112e057600080fd5b505af11580156112f4573d6000803e3d6000fd5b505050506040513d602081101561130a57600080fd5b8101908080519060200190929190505050508073ffffffffffffffffffffffffffffffffffffffff1663095ea7b3600760009054906101000a900473ffffffffffffffffffffffffffffffffffffffff167fffffffffffffffffffffffffffffffffffffffffffffffffffffffffffffffff6040518363ffffffff167c0100000000000000000000000000000000000000000000000000000000028152600401808373ffffffffffffffffffffffffffffffffffffffff1673ffffffffffffffffffffffffffffffffffffffff16815260200182815260200192505050602060405180830381600087803b15801561140157600080fd5b505af1158015611415573d6000803e3d6000fd5b505050506040513d602081101561142b57600080fd5b8101908080519060200190929190505050507f0669400c2c5c6f8bd8f29022a107808eb1dc731dee661a5424a41ad0c717abba82604051808273ffffffffffffffffffffffffffffffffffffffff1673ffffffffffffffffffffffffffffffffffffffff16815260200191505060405180910390a15050565b60035481565b60025481565b60608060006001805490506040519080825280602002602001820160405280156114e95781602001602082028038833980820191505090505b509150600090505b6001805490508110156115485760018181548110151561150d57fe5b906000526020600020906003020160020154828281518110151561152d57fe5b906020019060200201818152505080806001019150506114f1565b819250505090565b6000600254905090565b60018181548110151561156957fe5b90600052602060002090600302016000915090508060000160009054906101000a900473ffffffffffffffffffffffffffffffffffffffff16908060010154908060020154905083565b6000809054906101000a900473ffffffffffffffffffffffffffffffffffffffff1673ffffffffffffffffffffffffffffffffffffffff163373ffffffffffffffffffffffffffffffffffffffff1614151561160e57600080fd5b600073ffffffffffffffffffffffffffffffffffffffff168173ffffffffffffffffffffffffffffffffffffffff161415151561164a57600080fd5b8073ffffffffffffffffffffffffffffffffffffffff166000809054906101000a900473ffffffffffffffffffffffffffffffffffffffff1673ffffffffffffffffffffffffffffffffffffffff167f8be0079c531659141344cd1fd0a4f28419497f9722a3daafe3b4186f6b6457e060405160405180910390a3806000806101000a81548173ffffffffffffffffffffffffffffffffffffffff021916908373ffffffffffffffffffffffffffffffffffffffff16021790555050565b60008060008090505b6001805490508110156117ab578373ffffffffffffffffffffffffffffffffffffffff1660018281548110151561174457fe5b906000526020600020906003020160000160009054906101000a900473ffffffffffffffffffffffffffffffffffffffff1673ffffffffffffffffffffffffffffffffffffffff16141561179e57806001925092506117b6565b8080600101915050611711565b600080819150925092505b50915091565b600081830190508281101515156117cf57fe5b80905092915050565b606060405190810160405280600073ffffffffffffffffffffffffffffffffffffffff16815260200160008152602001600081525090565b60a060405190810160405280600590602082028038833980820191505090505090565b60c0604051908101604052806006906020820280388339808201915050905050905600a165627a7a723058202040fab70323bbda8841e9f5c1b864ff77e4703aea3ba353d52eb416afa503440029",
  "source": "pragma solidity ^0.4.21;\nimport \"openzeppelin-solidity/contracts/math/SafeMath.sol\";\nimport \"openzeppelin-solidity/contracts/ownership/Ownable.sol\";\nimport {Token} from './Token.sol';\nimport {Exchange} from './Exchange.sol';\nimport {ReentrancyGuard} from './ReentrancyGuard.sol';\n\ncontract IndexContract is Ownable, ReentrancyGuard {\n\t\tusing SafeMath for uint256;\n\t\tuint256 constant MAX_UINT = 2**256 - 1;\n\n\t\tevent allowanceSet(address tokenAddress);\n\n\t\t// TokenInfo is the address of the tokens and the %age weight\n\t\tstruct TokenInfo {\n        address addr;\n        uint256 weight;\n\t\t\t\tuint256 curr_quantity;\n    }\n\n\t\tTokenInfo[] public _tokens;\n\t\tuint256 public _rebalanceInBlocks;\n\t\tuint256 public _lastRebalanced;\n\t\taddress _proxyAddress; // Address of token transfer proxy: https://0xproject.com/wiki#Deployed-Addresses\n\t\taddress _WETHAddress;\n\t\tExchange _exchange;\n    address _diyindex;\n    \n\t\tmapping (address => uint256) public balances;\n\n\t\tconstructor(\n\t\t\taddress[] addresses, \n\t\t\tuint256[] weights, \n\t\t\tuint256 rebalanceInBlocks,\n\t\t\taddress proxyAddress,\n\t\t\taddress exchangeAddress,\n\t\t\taddress WETHAddress,\n      address diyindex\n\t\t) public {\n\t\t\t  require(addresses.length > 0);\n        require(addresses.length == weights.length);\n\n\t\t\t\t_rebalanceInBlocks = rebalanceInBlocks;\n\t\t\t\t_proxyAddress = proxyAddress;\n\t\t\t\t_exchange = Exchange(exchangeAddress);\n\t\t\t\t_WETHAddress = WETHAddress;\n        _diyindex = diyindex;\n\t\t\t\t_lastRebalanced = 0;\n\t\t\t\t\n        for (uint256 i = 0; i < addresses.length; i++) {\n            _tokens.push(TokenInfo({\n                addr: addresses[i],\n                weight: weights[i],\n\t\t\t\t\t\t\t\tcurr_quantity: 0\n            }));\n        }\n\t\t}\n\n\t\tfunction deposit_weth(uint256 amount) external onlyOwner returns (bool success) {\n\t\t\t\trequire(amount > 0);\n        uint256 i;\n\t\t\t\tbool exists;\n\t\t\t\t(i, exists) = get_index(_WETHAddress);\t\n\t\t\t\trequire(exists);\n\t\t\t\tToken token = Token(_WETHAddress);\n\t\t\t\trequire(token.transferFrom(msg.sender, this, amount));\n\t\t\t\t_tokens[i].curr_quantity = _tokens[i].curr_quantity.add(amount);\n\t\t\t\treturn true;\n\t\t}\n\n\t\tfunction get_last_rebalanced() external view returns (uint256) {\n\t\t\treturn _lastRebalanced;\n\t\t}\n\n\t\tfunction rebalance_in_blocks() external view returns (uint256) {\n\t\t\treturn _rebalanceInBlocks;\n\t\t}\n\n\t\tfunction withdraw() external onlyOwner nonReentrant returns (bool success) {\n\t\t\t\tfor (uint256 i = 0; i < _tokens.length; i++) {\n            TokenInfo memory withdraw_token = _tokens[i];\n            Token token = Token(withdraw_token.addr);\n            uint256 amount = withdraw_token.curr_quantity;\n\t\t\t\t\t\t_tokens[i].curr_quantity = 0;\n            require(token.transfer(owner, amount));\n        }\t\n        return true;\n\t\t}\n\n\t\t/// @return addresses\n    function token_addresses() external view returns (address[]){\n        address[] memory addresses = new address[](_tokens.length);\n        for (uint256 i = 0; i < _tokens.length; i++) {\n            addresses[i] = _tokens[i].addr;\n        }\n        return addresses;\n    }\n\n\t\t/// @return weight that we'd like to achieve\n    function token_weight() external view returns (uint256[]){\n        uint256[] memory weight = new uint256[](_tokens.length);\n        for (uint256 i = 0; i < _tokens.length; i++) {\n            weight[i] = _tokens[i].weight;\n        }\n        return weight;\n    }\n\n\t\t/// @return weight that we'd like to achieve\n    function token_quantities() external view returns (uint256[]){\n        uint256[] memory quantities = new uint256[](_tokens.length);\n        for (uint256 i = 0; i < _tokens.length; i++) {\n            quantities[i] = _tokens[i].curr_quantity;\n        }\n        return quantities;\n    }\n\n\t\tfunction get_index(address token) internal view returns (uint256, bool) {\n        for (uint256 i = 0; i < _tokens.length; i++) {\n            if (_tokens[i].addr == token) {\n                return (i, true);\n            }\n        }\n        return (0, false);\n    }\n\n\t\t//\n\t\t// Makes token tradeable by setting an allowance for etherDelta and 0x proxy contract.\n\t\t// Also sets an allowance for the owner of the contracts therefore allowing to withdraw tokens.\n\t\t//\n    function set_allowances(address tokenAddress) external onlyOwner {\n        Token token = Token(tokenAddress);\n        token.approve(_proxyAddress, MAX_UINT);\n        token.approve(owner, MAX_UINT);\n\t\t\t\ttoken.approve(_diyindex, MAX_UINT);\n\t\t\t\t// The smart contract should be allowed to trade this\n\t\t\t\t// token.approve(address(this), MAX_UINT);\n\t\t\t\temit allowanceSet(tokenAddress);\n    }\n\n\t\tfunction make_exchange_trade(\n        address[5] addresses, uint[7] values,\n        uint8 v, bytes32 r, bytes32 s, uint256 block_height\n    ) public returns (bool success) {\n        // make exchange trade can only be called by us\n        require(msg.sender == _diyindex);\n        address[5] memory orderAddresses = [\n            addresses[0], // maker\n            addresses[1], // taker\n            addresses[2], // makerToken\n            addresses[3], // takerToken\n            addresses[4] // feeRecepient\n        ];\n        uint[6] memory orderValues = [\n            values[0], // makerTokenAmount\n            values[1], // takerTokenAmount\n            values[2], // makerFee\n            values[3], // takerFee\n            values[4], // expirationTimestampInSec\n            values[5]  // salt\n        ];\n        uint fillTakerTokenAmount = values[6]; // fillTakerTokenAmount\n        // Execute Exchange trade. It either succeeds in full or fails and reverts all the changes.\n\n        _exchange.fillOrKillOrder(orderAddresses, orderValues, fillTakerTokenAmount, v, r, s);\n\t\t\t\t_lastRebalanced = block_height;\n        return true;\n    }\n}\n",
  "sourcePath": "/Users/JeffreyYu/Desktop/ramniksBranch/cs359b-diy-a-new-decentralized-index/DIY-Truffle-Scrub/contracts/IndexContract.sol",
  "compiler": {
    "name": "solc",
    "version": "0.4.24+commit.e67f0147.Emscripten.clang"
  },
  "schemaVersion": "2.0.0",
  "updatedAt": "2018-06-05T04:36:46.442Z"
}