{
  "contractName": "IndexContractFactory",
  "abi": [
    {
      "constant": true,
      "inputs": [
        {
          "name": "",
          "type": "uint256"
        }
      ],
      "name": "indexContracts",
      "outputs": [
        {
          "name": "",
          "type": "address"
        }
      ],
      "payable": false,
      "stateMutability": "view",
      "type": "function"
    },
    {
      "inputs": [],
      "payable": false,
      "stateMutability": "nonpayable",
      "type": "constructor"
    },
    {
      "constant": true,
      "inputs": [],
      "name": "get_index_contracts",
      "outputs": [
        {
          "name": "",
          "type": "address[]"
        }
      ],
      "payable": false,
      "stateMutability": "view",
      "type": "function"
    },
    {
      "constant": true,
      "inputs": [],
      "name": "get_index_contract_count",
      "outputs": [
        {
          "name": "",
          "type": "uint256"
        }
      ],
      "payable": false,
      "stateMutability": "view",
      "type": "function"
    },
    {
      "constant": false,
      "inputs": [
        {
          "name": "addresses",
          "type": "address[]"
        },
        {
          "name": "weights",
          "type": "uint256[]"
        },
        {
          "name": "rebalanceInBlocks",
          "type": "uint256"
        },
        {
          "name": "proxyAddress",
          "type": "address"
        },
        {
          "name": "exchangeAddress",
          "type": "address"
        },
        {
          "name": "WETHAddress",
          "type": "address"
        },
        {
          "name": "diyindex",
          "type": "address"
        }
      ],
      "name": "new_index_contract",
      "outputs": [
        {
          "name": "",
          "type": "address"
        }
      ],
      "payable": true,
      "stateMutability": "payable",
      "type": "function"
    }
  ],
  "bytecode": "0x608060405234801561001057600080fd5b506127fb806100206000396000f300608060405260043610610062576000357c0100000000000000000000000000000000000000000000000000000000900463ffffffff168063532b5e241461006757806394fb2157146100d4578063dcf054171461023a578063edf522ad14610265575b600080fd5b34801561007357600080fd5b50610092600480360381019080803590602001909291905050506102d1565b604051808273ffffffffffffffffffffffffffffffffffffffff1673ffffffffffffffffffffffffffffffffffffffff16815260200191505060405180910390f35b6101f8600480360381019080803590602001908201803590602001908080602002602001604051908101604052809392919081815260200183836020028082843782019150505050505091929192908035906020019082018035906020019080806020026020016040519081016040528093929190818152602001838360200280828437820191505050505050919291929080359060200190929190803573ffffffffffffffffffffffffffffffffffffffff169060200190929190803573ffffffffffffffffffffffffffffffffffffffff169060200190929190803573ffffffffffffffffffffffffffffffffffffffff169060200190929190803573ffffffffffffffffffffffffffffffffffffffff16906020019092919050505061030f565b604051808273ffffffffffffffffffffffffffffffffffffffff1673ffffffffffffffffffffffffffffffffffffffff16815260200191505060405180910390f35b34801561024657600080fd5b5061024f6105ce565b6040518082815260200191505060405180910390f35b34801561027157600080fd5b5061027a6105da565b6040518080602001828103825283818151815260200191508051906020019060200280838360005b838110156102bd5780820151818401526020810190506102a2565b505050509050019250505060405180910390f35b6000818154811015156102e057fe5b906000526020600020016000915054906101000a900473ffffffffffffffffffffffffffffffffffffffff1681565b60008088888888888888610321610668565b8080602001806020018881526020018773ffffffffffffffffffffffffffffffffffffffff1673ffffffffffffffffffffffffffffffffffffffff1681526020018673ffffffffffffffffffffffffffffffffffffffff1673ffffffffffffffffffffffffffffffffffffffff1681526020018573ffffffffffffffffffffffffffffffffffffffff1673ffffffffffffffffffffffffffffffffffffffff1681526020018473ffffffffffffffffffffffffffffffffffffffff1673ffffffffffffffffffffffffffffffffffffffff16815260200183810383528a818151815260200191508051906020019060200280838360005b83811015610433578082015181840152602081019050610418565b50505050905001838103825289818151815260200191508051906020019060200280838360005b8381101561047557808201518184015260208101905061045a565b505050509050019950505050505050505050604051809103906000f0801580156104a3573d6000803e3d6000fd5b50905060008190806001815401808255809150509060018203906000526020600020016000909192909190916101000a81548173ffffffffffffffffffffffffffffffffffffffff021916908373ffffffffffffffffffffffffffffffffffffffff160217905550508073ffffffffffffffffffffffffffffffffffffffff1663f2fde38b336040518263ffffffff167c0100000000000000000000000000000000000000000000000000000000028152600401808273ffffffffffffffffffffffffffffffffffffffff1673ffffffffffffffffffffffffffffffffffffffff168152602001915050600060405180830381600087803b1580156105a757600080fd5b505af11580156105bb573d6000803e3d6000fd5b5050505080915050979650505050505050565b60008080549050905090565b6060600080548060200260200160405190810160405280929190818152602001828054801561065e57602002820191906000526020600020905b8160009054906101000a900473ffffffffffffffffffffffffffffffffffffffff1673ffffffffffffffffffffffffffffffffffffffff1681526020019060010190808311610614575b5050505050905090565b60405161215780610679833901905600608060405260008060146101000a81548160ff0219169083151502179055503480156200002b57600080fd5b506040516200215738038062002157833981018060405281019080805182019291906020018051820192919060200180519060200190929190805190602001909291908051906020019092919080519060200190929190805190602001909291905050506000336000806101000a81548173ffffffffffffffffffffffffffffffffffffffff021916908373ffffffffffffffffffffffffffffffffffffffff16021790555060008851111515620000e257600080fd5b86518851141515620000f357600080fd5b6000861115156200010357600080fd5b8560028190555084600460006101000a81548173ffffffffffffffffffffffffffffffffffffffff021916908373ffffffffffffffffffffffffffffffffffffffff16021790555083600660006101000a81548173ffffffffffffffffffffffffffffffffffffffff021916908373ffffffffffffffffffffffffffffffffffffffff16021790555082600560006101000a81548173ffffffffffffffffffffffffffffffffffffffff021916908373ffffffffffffffffffffffffffffffffffffffff16021790555081600760006101000a81548173ffffffffffffffffffffffffffffffffffffffff021916908373ffffffffffffffffffffffffffffffffffffffff1602179055506000600381905550600090505b8751811015620003215760016060604051908101604052808a848151811015156200024257fe5b9060200190602002015173ffffffffffffffffffffffffffffffffffffffff16815260200189848151811015156200027657fe5b90602001906020020151815260200160008152509080600181540180825580915050906001820390600052602060002090600302016000909192909190915060008201518160000160006101000a81548173ffffffffffffffffffffffffffffffffffffffff021916908373ffffffffffffffffffffffffffffffffffffffff160217905550602082015181600101556040820151816002015550505080806001019150506200021b565b5050505050505050611e1e80620003396000396000f3006080604052600436106100e6576000357c0100000000000000000000000000000000000000000000000000000000900463ffffffff1680630346c75d146100eb57806327e235e3146101575780633ccfd60b146101ae57806348a1063c146101dd57806383a2b6b7146102085780638b554de71461024d5780638da5cb5b146102b9578063934d832514610310578063a770aeed14610353578063b78dad871461037e578063bbdd5277146103d3578063c4186815146103fe578063ce67d8641461046a578063cf67b88f1461052c578063ed70554d14610557578063f2fde38b146105d2575b600080fd5b3480156100f757600080fd5b50610100610615565b6040518080602001828103825283818151815260200191508051906020019060200280838360005b83811015610143578082015181840152602081019050610128565b505050509050019250505060405180910390f35b34801561016357600080fd5b50610198600480360381019080803573ffffffffffffffffffffffffffffffffffffffff169060200190929190505050610703565b6040518082815260200191505060405180910390f35b3480156101ba57600080fd5b506101c361071b565b604051808215151515815260200191505060405180910390f35b3480156101e957600080fd5b506101f2610aa4565b6040518082815260200191505060405180910390f35b34801561021457600080fd5b5061023360048036038101908080359060200190929190505050610aae565b604051808215151515815260200191505060405180910390f35b34801561025957600080fd5b50610262610c9e565b6040518080602001828103825283818151815260200191508051906020019060200280838360005b838110156102a557808201518184015260208101905061028a565b505050509050019250505060405180910390f35b3480156102c557600080fd5b506102ce610d3e565b604051808273ffffffffffffffffffffffffffffffffffffffff1673ffffffffffffffffffffffffffffffffffffffff16815260200191505060405180910390f35b34801561031c57600080fd5b50610351600480360381019080803573ffffffffffffffffffffffffffffffffffffffff169060200190929190505050610d63565b005b34801561035f57600080fd5b5061036861118c565b6040518082815260200191505060405180910390f35b34801561038a57600080fd5b506103bd600480360381019080803590602001909291908035906020019092919080359060200190929190505050611192565b6040518082815260200191505060405180910390f35b3480156103df57600080fd5b506103e8611204565b6040518082815260200191505060405180910390f35b34801561040a57600080fd5b5061041361120a565b6040518080602001828103825283818151815260200191508051906020019060200280838360005b8381101561045657808201518184015260208101905061043b565b505050509050019250505060405180910390f35b34801561047657600080fd5b506105126004803603810190808060a001906005806020026040519081016040528092919082600560200280828437820191505050505091929192908060e00190600780602002604051908101604052809291908260076020028082843782019150505050509192919290803560ff169060200190929190803560001916906020019092919080356000191690602001909291905050506112aa565b604051808215151515815260200191505060405180910390f35b34801561053857600080fd5b50610541611854565b6040518082815260200191505060405180910390f35b34801561056357600080fd5b506105826004803603810190808035906020019092919050505061185e565b604051808473ffffffffffffffffffffffffffffffffffffffff1673ffffffffffffffffffffffffffffffffffffffff168152602001838152602001828152602001935050505060405180910390f35b3480156105de57600080fd5b50610613600480360381019080803573ffffffffffffffffffffffffffffffffffffffff1690602001909291905050506118b7565b005b606080600060018054905060405190808252806020026020018201604052801561064e5781602001602082028038833980820191505090505b509150600090505b6001805490508110156106fb5760018181548110151561067257fe5b906000526020600020906003020160000160009054906101000a900473ffffffffffffffffffffffffffffffffffffffff1682828151811015156106b257fe5b9060200190602002019073ffffffffffffffffffffffffffffffffffffffff16908173ffffffffffffffffffffffffffffffffffffffff16815250508080600101915050610656565b819250505090565b60086020528060005260406000206000915090505481565b600080610726611d74565b6000806000809054906101000a900473ffffffffffffffffffffffffffffffffffffffff1673ffffffffffffffffffffffffffffffffffffffff163373ffffffffffffffffffffffffffffffffffffffff1614151561078457600080fd5b600060149054906101000a900460ff161515156107a057600080fd5b6001600060146101000a81548160ff021916908315150217905550600093505b600180549050841015610a7f576001848154811015156107dc57fe5b9060005260206000209060030201606060405190810160405290816000820160009054906101000a900473ffffffffffffffffffffffffffffffffffffffff1673ffffffffffffffffffffffffffffffffffffffff1673ffffffffffffffffffffffffffffffffffffffff168152602001600182015481526020016002820154815250509250826000015191508173ffffffffffffffffffffffffffffffffffffffff166370a08231306040518263ffffffff167c0100000000000000000000000000000000000000000000000000000000028152600401808273ffffffffffffffffffffffffffffffffffffffff1673ffffffffffffffffffffffffffffffffffffffff168152602001915050602060405180830381600087803b15801561090457600080fd5b505af1158015610918573d6000803e3d6000fd5b505050506040513d602081101561092e57600080fd5b810190808051906020019092919050505090506000811115610a725761095c83600001516000806001611a0c565b151561096757600080fd5b8173ffffffffffffffffffffffffffffffffffffffff1663a9059cbb6000809054906101000a900473ffffffffffffffffffffffffffffffffffffffff16836040518363ffffffff167c0100000000000000000000000000000000000000000000000000000000028152600401808373ffffffffffffffffffffffffffffffffffffffff1673ffffffffffffffffffffffffffffffffffffffff16815260200182815260200192505050602060405180830381600087803b158015610a2b57600080fd5b505af1158015610a3f573d6000803e3d6000fd5b505050506040513d6020811015610a5557600080fd5b81019080805190602001909291905050501515610a7157600080fd5b5b83806001019450506107c0565b6001945060008060146101000a81548160ff0219169083151502179055505050505090565b6000600354905090565b6000806000809054906101000a900473ffffffffffffffffffffffffffffffffffffffff1673ffffffffffffffffffffffffffffffffffffffff163373ffffffffffffffffffffffffffffffffffffffff16141515610b0c57600080fd5b82600081111515610b1c57600080fd5b610b47600560009054906101000a900473ffffffffffffffffffffffffffffffffffffffff16611b77565b91508173ffffffffffffffffffffffffffffffffffffffff166323b872dd3330876040518463ffffffff167c0100000000000000000000000000000000000000000000000000000000028152600401808473ffffffffffffffffffffffffffffffffffffffff1673ffffffffffffffffffffffffffffffffffffffff1681526020018373ffffffffffffffffffffffffffffffffffffffff1673ffffffffffffffffffffffffffffffffffffffff1681526020018281526020019350505050602060405180830381600087803b158015610c2057600080fd5b505af1158015610c34573d6000803e3d6000fd5b505050506040513d6020811015610c4a57600080fd5b81019080805190602001909291905050501515610c6657600080fd5b610c95600560009054906101000a900473ffffffffffffffffffffffffffffffffffffffff1685600180611a0c565b92505050919050565b6060806000600180549050604051908082528060200260200182016040528015610cd75781602001602082028038833980820191505090505b509150600090505b600180549050811015610d3657600181815481101515610cfb57fe5b9060005260206000209060030201600101548282815181101515610d1b57fe5b90602001906020020181815250508080600101915050610cdf565b819250505090565b6000809054906101000a900473ffffffffffffffffffffffffffffffffffffffff1681565b60008060009054906101000a900473ffffffffffffffffffffffffffffffffffffffff1673ffffffffffffffffffffffffffffffffffffffff163373ffffffffffffffffffffffffffffffffffffffff16141515610dc057600080fd5b8190508073ffffffffffffffffffffffffffffffffffffffff1663095ea7b3600460009054906101000a900473ffffffffffffffffffffffffffffffffffffffff167fffffffffffffffffffffffffffffffffffffffffffffffffffffffffffffffff6040518363ffffffff167c0100000000000000000000000000000000000000000000000000000000028152600401808373ffffffffffffffffffffffffffffffffffffffff1673ffffffffffffffffffffffffffffffffffffffff16815260200182815260200192505050602060405180830381600087803b158015610ea857600080fd5b505af1158015610ebc573d6000803e3d6000fd5b505050506040513d6020811015610ed257600080fd5b8101908080519060200190929190505050508073ffffffffffffffffffffffffffffffffffffffff1663095ea7b36000809054906101000a900473ffffffffffffffffffffffffffffffffffffffff167fffffffffffffffffffffffffffffffffffffffffffffffffffffffffffffffff6040518363ffffffff167c0100000000000000000000000000000000000000000000000000000000028152600401808373ffffffffffffffffffffffffffffffffffffffff1673ffffffffffffffffffffffffffffffffffffffff16815260200182815260200192505050602060405180830381600087803b158015610fc857600080fd5b505af1158015610fdc573d6000803e3d6000fd5b505050506040513d6020811015610ff257600080fd5b8101908080519060200190929190505050508073ffffffffffffffffffffffffffffffffffffffff1663095ea7b3600760009054906101000a900473ffffffffffffffffffffffffffffffffffffffff167fffffffffffffffffffffffffffffffffffffffffffffffffffffffffffffffff6040518363ffffffff167c0100000000000000000000000000000000000000000000000000000000028152600401808373ffffffffffffffffffffffffffffffffffffffff1673ffffffffffffffffffffffffffffffffffffffff16815260200182815260200192505050602060405180830381600087803b1580156110e957600080fd5b505af11580156110fd573d6000803e3d6000fd5b505050506040513d602081101561111357600080fd5b8101908080519060200190929190505050507f0669400c2c5c6f8bd8f29022a107808eb1dc731dee661a5424a41ad0c717abba82604051808273ffffffffffffffffffffffffffffffffffffffff1673ffffffffffffffffffffffffffffffffffffffff16815260200191505060405180910390a15050565b60035481565b6000806000806000670de0b6b3a764000093506111b88489611c3d90919063ffffffff16565b92506111cd8684611c7590919063ffffffff16565b91506111e28783611c3d90919063ffffffff16565b90506111f78482611c7590919063ffffffff16565b9450505050509392505050565b60025481565b60608060006001805490506040519080825280602002602001820160405280156112435781602001602082028038833980820191505090505b509150600090505b6001805490508110156112a25760018181548110151561126757fe5b906000526020600020906003020160020154828281518110151561128757fe5b9060200190602002018181525050808060010191505061124b565b819250505090565b6000806112b5611dac565b6112bd611dcf565b6000808960066007811015156112cf57fe5b60200201516000811115156112e357600080fd5b439550600760009054906101000a900473ffffffffffffffffffffffffffffffffffffffff1673ffffffffffffffffffffffffffffffffffffffff163373ffffffffffffffffffffffffffffffffffffffff16148061138e57506000809054906101000a900473ffffffffffffffffffffffffffffffffffffffff1673ffffffffffffffffffffffffffffffffffffffff163373ffffffffffffffffffffffffffffffffffffffff16145b151561139957600080fd5b60025460035401861115156113ad57600080fd5b60a0604051908101604052808d60006005811015156113c857fe5b602002015173ffffffffffffffffffffffffffffffffffffffff1673ffffffffffffffffffffffffffffffffffffffff1681526020018d600160058110151561140d57fe5b602002015173ffffffffffffffffffffffffffffffffffffffff1673ffffffffffffffffffffffffffffffffffffffff1681526020018d600260058110151561145257fe5b602002015173ffffffffffffffffffffffffffffffffffffffff1673ffffffffffffffffffffffffffffffffffffffff1681526020018d600360058110151561149757fe5b602002015173ffffffffffffffffffffffffffffffffffffffff1673ffffffffffffffffffffffffffffffffffffffff1681526020018d60046005811015156114dc57fe5b602002015173ffffffffffffffffffffffffffffffffffffffff1673ffffffffffffffffffffffffffffffffffffffff16815250945060c0604051908101604052808c600060078110151561152d57fe5b602002015181526020018c600160078110151561154657fe5b602002015181526020018c600260078110151561155f57fe5b602002015181526020018c600360078110151561157857fe5b602002015181526020018c600460078110151561159157fe5b602002015181526020018c60056007811015156115aa57fe5b602002015181525093508a60066007811015156115c357fe5b60200201519250600660009054906101000a900473ffffffffffffffffffffffffffffffffffffffff1673ffffffffffffffffffffffffffffffffffffffff1663741bcc938686868e8e8e6040518763ffffffff167c01000000000000000000000000000000000000000000000000000000000281526004018087600560200280838360005b83811015611664578082015181840152602081019050611649565b5050505090500186600660200280838360005b83811015611692578082015181840152602081019050611677565b505050509050018581526020018460ff1660ff168152602001836000191660001916815260200182600019166000191681526020019650505050505050600060405180830381600087803b1580156116e957600080fd5b505af11580156116fd573d6000803e3d6000fd5b50505050856003819055506117298c600360058110151561171a57fe5b60200201518460016000611a0c565b151561173457600080fd5b3073ffffffffffffffffffffffffffffffffffffffff1663b78dad87848d600060078110151561176057fe5b60200201518e600160078110151561177457fe5b60200201516040518463ffffffff167c0100000000000000000000000000000000000000000000000000000000028152600401808481526020018381526020018281526020019350505050602060405180830381600087803b1580156117d957600080fd5b505af11580156117ed573d6000803e3d6000fd5b505050506040513d602081101561180357600080fd5b810190808051906020019092919050505091506118368c600260058110151561182857fe5b602002015183600180611a0c565b151561184157600080fd5b6001965050505050505095945050505050565b6000600254905090565b60018181548110151561186d57fe5b90600052602060002090600302016000915090508060000160009054906101000a900473ffffffffffffffffffffffffffffffffffffffff16908060010154908060020154905083565b6000809054906101000a900473ffffffffffffffffffffffffffffffffffffffff1673ffffffffffffffffffffffffffffffffffffffff163373ffffffffffffffffffffffffffffffffffffffff1614151561191257600080fd5b600073ffffffffffffffffffffffffffffffffffffffff168173ffffffffffffffffffffffffffffffffffffffff161415151561194e57600080fd5b8073ffffffffffffffffffffffffffffffffffffffff166000809054906101000a900473ffffffffffffffffffffffffffffffffffffffff1673ffffffffffffffffffffffffffffffffffffffff167f8be0079c531659141344cd1fd0a4f28419497f9722a3daafe3b4186f6b6457e060405160405180910390a3806000806101000a81548173ffffffffffffffffffffffffffffffffffffffff021916908373ffffffffffffffffffffffffffffffffffffffff16021790555050565b60008060008060149054906101000a900460ff16151515611a2c57600080fd5b6001600060146101000a81548160ff021916908315150217905550611a5087611c8b565b8092508193505050801515611a6457600080fd5b8415611b29578315611acc57611aa386600184815481101515611a8357fe5b906000526020600020906003020160020154611d3f90919063ffffffff16565b600183815481101515611ab257fe5b906000526020600020906003020160020181905550611b24565b611aff86600184815481101515611adf57fe5b906000526020600020906003020160020154611d5b90919063ffffffff16565b600183815481101515611b0e57fe5b9060005260206000209060030201600201819055505b611b4f565b85600183815481101515611b3957fe5b9060005260206000209060030201600201819055505b6001925060008060146101000a81548160ff0219169083151502179055505050949350505050565b600080600080600060149054906101000a900460ff16151515611b9957600080fd5b6001600060146101000a81548160ff021916908315150217905550611bdf600560009054906101000a900473ffffffffffffffffffffffffffffffffffffffff16611c8b565b8093508194505050811515611bf357600080fd5b600560009054906101000a900473ffffffffffffffffffffffffffffffffffffffff16905080935060008060146101000a81548160ff021916908315150217905550505050919050565b600080831415611c505760009050611c6f565b8183029050818382811515611c6157fe5b04141515611c6b57fe5b8090505b92915050565b60008183811515611c8257fe5b04905092915050565b60008060008090505b600180549050811015611d2e578373ffffffffffffffffffffffffffffffffffffffff16600182815481101515611cc757fe5b906000526020600020906003020160000160009054906101000a900473ffffffffffffffffffffffffffffffffffffffff1673ffffffffffffffffffffffffffffffffffffffff161415611d215780600192509250611d39565b8080600101915050611c94565b600080819150925092505b50915091565b60008183019050828110151515611d5257fe5b80905092915050565b6000828211151515611d6957fe5b818303905092915050565b606060405190810160405280600073ffffffffffffffffffffffffffffffffffffffff16815260200160008152602001600081525090565b60a060405190810160405280600590602082028038833980820191505090505090565b60c0604051908101604052806006906020820280388339808201915050905050905600a165627a7a72305820cf8af9d96576ed3493b66f82a2bd1825baee44c564d3555596ff7765c9d169430029a165627a7a723058204584bfb321bc1fd58ad0aeb79af82733da752b9e0ea0b0590a348f6debe23c160029",
  "source": "pragma solidity ^0.4.21;\n\nimport {IndexContract} from './IndexContract.sol';\n// import {DIY} from './DIY.sol';\n\ncontract IndexContractFactory {\n  address[] public indexContracts;\n\n  constructor() public {\n  }\n\n  function get_index_contracts() external view returns (address[]) {\n    return indexContracts;\n  }\n\n  function get_index_contract_count() external view returns (uint256) {\n    return indexContracts.length;\n  }\n\n\tfunction new_index_contract(\n\t\taddress[] addresses, \n\t\tuint256[] weights, \n\t\tuint256 rebalanceInBlocks,\n\t\taddress proxyAddress,\n\t\taddress exchangeAddress,\n\t\taddress WETHAddress,\n\t\taddress diyindex\n\t) public payable returns (address) {\n\t\tIndexContract ic = new IndexContract(addresses, weights, rebalanceInBlocks, proxyAddress, exchangeAddress, WETHAddress, diyindex);\n\t\tindexContracts.push(ic);\n\t\tic.transferOwnership(msg.sender);\n\t\treturn ic;\n//\t\tDIY ic = new DIY(weights);\n//\t\tindexContracts.push(ic);\n//\t\treturn ic;\n\t}\n}\n",
  "sourcePath": "/Users/JeffreyYu/Desktop/ramniksBranch/cs359b-diy-a-new-decentralized-index/DIY-Truffle-Scrub/contracts/IndexContractFactory.sol",
  "compiler": {
    "name": "solc",
    "version": "0.4.24+commit.e67f0147.Emscripten.clang"
  },
  "schemaVersion": "2.0.0",
  "updatedAt": "2018-06-13T05:43:25.515Z"
}