{
  "contractName": "OraclizeTest",
  "abi": [
    {
      "constant": true,
      "inputs": [
        {
          "name": "",
          "type": "bytes32"
        }
      ],
      "name": "oraclizeCallbacks",
      "outputs": [
        {
          "name": "oState",
          "type": "uint8"
        }
      ],
      "payable": false,
      "stateMutability": "view",
      "type": "function"
    },
    {
      "inputs": [],
      "payable": true,
      "stateMutability": "payable",
      "type": "constructor"
    },
    {
      "payable": false,
      "stateMutability": "nonpayable",
      "type": "fallback"
    },
    {
      "anonymous": false,
      "inputs": [
        {
          "indexed": false,
          "name": "description",
          "type": "string"
        }
      ],
      "name": "LogInfo",
      "type": "event"
    },
    {
      "anonymous": false,
      "inputs": [
        {
          "indexed": false,
          "name": "price",
          "type": "string"
        }
      ],
      "name": "LogPriceUpdateEth",
      "type": "event"
    },
    {
      "anonymous": false,
      "inputs": [
        {
          "indexed": false,
          "name": "price",
          "type": "string"
        }
      ],
      "name": "LogPriceUpdateEos",
      "type": "event"
    },
    {
      "anonymous": false,
      "inputs": [
        {
          "indexed": false,
          "name": "price",
          "type": "string"
        }
      ],
      "name": "LogPriceUpdateTrx",
      "type": "event"
    },
    {
      "anonymous": false,
      "inputs": [
        {
          "indexed": false,
          "name": "price",
          "type": "string"
        }
      ],
      "name": "LogPriceUpdateVen",
      "type": "event"
    },
    {
      "anonymous": false,
      "inputs": [
        {
          "indexed": false,
          "name": "price",
          "type": "string"
        }
      ],
      "name": "LogPriceUpdateIcx",
      "type": "event"
    },
    {
      "anonymous": false,
      "inputs": [
        {
          "indexed": false,
          "name": "price",
          "type": "string"
        }
      ],
      "name": "LogPriceUpdateBnb",
      "type": "event"
    },
    {
      "anonymous": false,
      "inputs": [
        {
          "indexed": false,
          "name": "price",
          "type": "string"
        }
      ],
      "name": "LogPriceUpdateOmg",
      "type": "event"
    },
    {
      "anonymous": false,
      "inputs": [
        {
          "indexed": false,
          "name": "price",
          "type": "string"
        }
      ],
      "name": "LogPriceUpdateZil",
      "type": "event"
    },
    {
      "anonymous": false,
      "inputs": [
        {
          "indexed": false,
          "name": "price",
          "type": "string"
        }
      ],
      "name": "LogPriceUpdateAe",
      "type": "event"
    },
    {
      "anonymous": false,
      "inputs": [
        {
          "indexed": false,
          "name": "price",
          "type": "string"
        }
      ],
      "name": "LogPriceUpdateZrx",
      "type": "event"
    },
    {
      "anonymous": false,
      "inputs": [
        {
          "indexed": false,
          "name": "price",
          "type": "string"
        }
      ],
      "name": "LogPriceUpdateBtm",
      "type": "event"
    },
    {
      "anonymous": false,
      "inputs": [
        {
          "indexed": true,
          "name": "_owner",
          "type": "address"
        },
        {
          "indexed": true,
          "name": "_balance",
          "type": "uint256"
        }
      ],
      "name": "LogUpdate",
      "type": "event"
    },
    {
      "constant": false,
      "inputs": [
        {
          "name": "myid",
          "type": "bytes32"
        },
        {
          "name": "result",
          "type": "string"
        }
      ],
      "name": "__callback",
      "outputs": [],
      "payable": false,
      "stateMutability": "nonpayable",
      "type": "function"
    },
    {
      "constant": false,
      "inputs": [
        {
          "name": "id",
          "type": "bytes32"
        },
        {
          "name": "result",
          "type": "string"
        },
        {
          "name": "proof",
          "type": "bytes"
        }
      ],
      "name": "__callback",
      "outputs": [],
      "payable": false,
      "stateMutability": "nonpayable",
      "type": "function"
    },
    {
      "constant": false,
      "inputs": [],
      "name": "getBalance",
      "outputs": [
        {
          "name": "_balance",
          "type": "uint256"
        }
      ],
      "payable": false,
      "stateMutability": "nonpayable",
      "type": "function"
    },
    {
      "constant": false,
      "inputs": [],
      "name": "updateEth",
      "outputs": [],
      "payable": true,
      "stateMutability": "payable",
      "type": "function"
    },
    {
      "constant": false,
      "inputs": [],
      "name": "updateEos",
      "outputs": [],
      "payable": true,
      "stateMutability": "payable",
      "type": "function"
    },
    {
      "constant": false,
      "inputs": [],
      "name": "updateTrx",
      "outputs": [],
      "payable": true,
      "stateMutability": "payable",
      "type": "function"
    },
    {
      "constant": false,
      "inputs": [],
      "name": "updateVen",
      "outputs": [],
      "payable": true,
      "stateMutability": "payable",
      "type": "function"
    },
    {
      "constant": false,
      "inputs": [],
      "name": "updateIcx",
      "outputs": [],
      "payable": true,
      "stateMutability": "payable",
      "type": "function"
    },
    {
      "constant": false,
      "inputs": [],
      "name": "updateBnb",
      "outputs": [],
      "payable": true,
      "stateMutability": "payable",
      "type": "function"
    },
    {
      "constant": false,
      "inputs": [],
      "name": "updateOmg",
      "outputs": [],
      "payable": true,
      "stateMutability": "payable",
      "type": "function"
    },
    {
      "constant": false,
      "inputs": [],
      "name": "updateZil",
      "outputs": [],
      "payable": true,
      "stateMutability": "payable",
      "type": "function"
    },
    {
      "constant": false,
      "inputs": [],
      "name": "updateAe",
      "outputs": [],
      "payable": true,
      "stateMutability": "payable",
      "type": "function"
    },
    {
      "constant": false,
      "inputs": [],
      "name": "updateZrx",
      "outputs": [],
      "payable": true,
      "stateMutability": "payable",
      "type": "function"
    },
    {
      "constant": false,
      "inputs": [],
      "name": "updateBtm",
      "outputs": [],
      "payable": true,
      "stateMutability": "payable",
      "type": "function"
    }
  ],
  "bytecode": "0x608060405233600560006101000a81548173ffffffffffffffffffffffffffffffffffffffff021916908373ffffffffffffffffffffffffffffffffffffffff1602179055503073ffffffffffffffffffffffffffffffffffffffff1631600560009054906101000a900473ffffffffffffffffffffffffffffffffffffffff1673ffffffffffffffffffffffffffffffffffffffff167fd176e7c6abd789c341ab22cef27aa1fbc7461f5f9d6a6e55faa0b9df32a7051460405160405180910390a37308193c23804b292452a6fdc0e88f42fd121a24436000806101000a81548173ffffffffffffffffffffffffffffffffffffffff021916908373ffffffffffffffffffffffffffffffffffffffff1602179055506200017860017f01000000000000000000000000000000000000000000000000000000000000000260107f0100000000000000000000000000000000000000000000000000000000000000021762000291640100000000026401000000009004565b6200019162000645640100000000026401000000009004565b620001aa6200093a640100000000026401000000009004565b620001c362000c2f640100000000026401000000009004565b620001dc62000f24640100000000026401000000009004565b620001f562001219640100000000026401000000009004565b6200020e6200150e640100000000026401000000009004565b6200022762001803640100000000026401000000009004565b6200024062001af8640100000000026401000000009004565b6200025962001ded640100000000026401000000009004565b62000272620020e2640100000000026401000000009004565b6200028b620023d7640100000000026401000000009004565b620036fa565b60008060009054906101000a900473ffffffffffffffffffffffffffffffffffffffff1673ffffffffffffffffffffffffffffffffffffffff1614806200031257506000620003106000809054906101000a900473ffffffffffffffffffffffffffffffffffffffff16620026cb640100000000026401000000009004565b145b156200033557620003336000620026d6640100000000026401000000009004565b505b6000809054906101000a900473ffffffffffffffffffffffffffffffffffffffff1673ffffffffffffffffffffffffffffffffffffffff166338cc48316040518163ffffffff167c0100000000000000000000000000000000000000000000000000000000028152600401602060405180830381600087803b158015620003bb57600080fd5b505af1158015620003d0573d6000803e3d6000fd5b505050506040513d6020811015620003e757600080fd5b810190808051906020019092919050505073ffffffffffffffffffffffffffffffffffffffff16600160009054906101000a900473ffffffffffffffffffffffffffffffffffffffff1673ffffffffffffffffffffffffffffffffffffffff1614151562000553576000809054906101000a900473ffffffffffffffffffffffffffffffffffffffff1673ffffffffffffffffffffffffffffffffffffffff166338cc48316040518163ffffffff167c0100000000000000000000000000000000000000000000000000000000028152600401602060405180830381600087803b158015620004d557600080fd5b505af1158015620004ea573d6000803e3d6000fd5b505050506040513d60208110156200050157600080fd5b8101908080519060200190929190505050600160006101000a81548173ffffffffffffffffffffffffffffffffffffffff021916908373ffffffffffffffffffffffffffffffffffffffff1602179055505b600160009054906101000a900473ffffffffffffffffffffffffffffffffffffffff1673ffffffffffffffffffffffffffffffffffffffff1663688dcfd7826040518263ffffffff167c010000000000000000000000000000000000000000000000000000000002815260040180827effffffffffffffffffffffffffffffffffffffffffffffffffffffffffffff19167effffffffffffffffffffffffffffffffffffffffffffffffffffffffffffff19168152602001915050600060405180830381600087803b1580156200062957600080fd5b505af11580156200063e573d6000803e3d6000fd5b5050505050565b60003073ffffffffffffffffffffffffffffffffffffffff1631620006ae6040805190810160405280600381526020017f55524c0000000000000000000000000000000000000000000000000000000000815250620026f8640100000000026401000000009004565b11156200076f577ffee95ecae0c8f7f0743ec0ad254c78ab75e5ecca9f1ddcd9f11f9a98124b96bc60405180806020018281038252604f8152602001807f4f7261636c697a652045544820717565727920776173204e4f542073656e742c81526020017f20706c656173652061646420736f6d652045544820746f20636f76657220666f81526020017f722074686520717565727920666565000000000000000000000000000000000081525060600191505060405180910390a162000937565b7ffee95ecae0c8f7f0743ec0ad254c78ab75e5ecca9f1ddcd9f11f9a98124b96bc6040518080602001828103825260398152602001807f4f7261636c697a6520455448207175657279207761732073656e742c2073746181526020017f6e64696e6720627920666f722074686520616e737765722e2e0000000000000081525060400191505060405180910390a1620008cf6040805190810160405280600381526020017f55524c0000000000000000000000000000000000000000000000000000000000815250608060405190810160405280604181526020017f6a736f6e2868747470733a2f2f6170692e636f696e626173652e636f6d2f763281526020017f2f7072696365732f4554482d5553442f73706f74292e646174612e616d6f756e81526020017f740000000000000000000000000000000000000000000000000000000000000081525062002af9640100000000026401000000009004565b90506020604051908101604052806000600a811115620008eb57fe5b81525060066000836000191660001916815260200190815260200160002060008201518160000160006101000a81548160ff0219169083600a8111156200092e57fe5b02179055509050505b50565b60003073ffffffffffffffffffffffffffffffffffffffff1631620009a36040805190810160405280600381526020017f55524c0000000000000000000000000000000000000000000000000000000000815250620026f8640100000000026401000000009004565b111562000a64577ffee95ecae0c8f7f0743ec0ad254c78ab75e5ecca9f1ddcd9f11f9a98124b96bc60405180806020018281038252604f8152602001807f4f7261636c697a6520454f5320717565727920776173204e4f542073656e742c81526020017f20706c656173652061646420736f6d652045544820746f20636f76657220666f81526020017f722074686520717565727920666565000000000000000000000000000000000081525060600191505060405180910390a162000c2c565b7ffee95ecae0c8f7f0743ec0ad254c78ab75e5ecca9f1ddcd9f11f9a98124b96bc6040518080602001828103825260398152602001807f4f7261636c697a6520454f53207175657279207761732073656e742c2073746181526020017f6e64696e6720627920666f722074686520616e737765722e2e0000000000000081525060400191505060405180910390a162000bc46040805190810160405280600381526020017f55524c0000000000000000000000000000000000000000000000000000000000815250608060405190810160405280604981526020017f6a736f6e2868747470733a2f2f6170692e636f696e6d61726b65746361702e6381526020017f6f6d2f76322f7469636b65722f313736352f292e646174612e71756f7465732e81526020017f5553442e7072696365000000000000000000000000000000000000000000000081525062002af9640100000000026401000000009004565b90506020604051908101604052806001600a81111562000be057fe5b81525060066000836000191660001916815260200190815260200160002060008201518160000160006101000a81548160ff0219169083600a81111562000c2357fe5b02179055509050505b50565b60003073ffffffffffffffffffffffffffffffffffffffff163162000c986040805190810160405280600381526020017f55524c0000000000000000000000000000000000000000000000000000000000815250620026f8640100000000026401000000009004565b111562000d59577ffee95ecae0c8f7f0743ec0ad254c78ab75e5ecca9f1ddcd9f11f9a98124b96bc60405180806020018281038252604f8152602001807f4f7261636c697a652054525820717565727920776173204e4f542073656e742c81526020017f20706c656173652061646420736f6d652045544820746f20636f76657220666f81526020017f722074686520717565727920666565000000000000000000000000000000000081525060600191505060405180910390a162000f21565b7ffee95ecae0c8f7f0743ec0ad254c78ab75e5ecca9f1ddcd9f11f9a98124b96bc6040518080602001828103825260398152602001807f4f7261636c697a6520545258207175657279207761732073656e742c2073746181526020017f6e64696e6720627920666f722074686520616e737765722e2e0000000000000081525060400191505060405180910390a162000eb96040805190810160405280600381526020017f55524c0000000000000000000000000000000000000000000000000000000000815250608060405190810160405280604981526020017f6a736f6e2868747470733a2f2f6170692e636f696e6d61726b65746361702e6381526020017f6f6d2f76322f7469636b65722f313935382f292e646174612e71756f7465732e81526020017f5553442e7072696365000000000000000000000000000000000000000000000081525062002af9640100000000026401000000009004565b90506020604051908101604052806002600a81111562000ed557fe5b81525060066000836000191660001916815260200190815260200160002060008201518160000160006101000a81548160ff0219169083600a81111562000f1857fe5b02179055509050505b50565b60003073ffffffffffffffffffffffffffffffffffffffff163162000f8d6040805190810160405280600381526020017f55524c0000000000000000000000000000000000000000000000000000000000815250620026f8640100000000026401000000009004565b11156200104e577ffee95ecae0c8f7f0743ec0ad254c78ab75e5ecca9f1ddcd9f11f9a98124b96bc60405180806020018281038252604f8152602001807f4f7261636c697a652056454e20717565727920776173204e4f542073656e742c81526020017f20706c656173652061646420736f6d652045544820746f20636f76657220666f81526020017f722074686520717565727920666565000000000000000000000000000000000081525060600191505060405180910390a162001216565b7ffee95ecae0c8f7f0743ec0ad254c78ab75e5ecca9f1ddcd9f11f9a98124b96bc6040518080602001828103825260398152602001807f4f7261636c697a652056454e207175657279207761732073656e742c2073746181526020017f6e64696e6720627920666f722074686520616e737765722e2e0000000000000081525060400191505060405180910390a1620011ae6040805190810160405280600381526020017f55524c0000000000000000000000000000000000000000000000000000000000815250608060405190810160405280604981526020017f6a736f6e2868747470733a2f2f6170692e636f696e6d61726b65746361702e6381526020017f6f6d2f76322f7469636b65722f313930342f292e646174612e71756f7465732e81526020017f5553442e7072696365000000000000000000000000000000000000000000000081525062002af9640100000000026401000000009004565b90506020604051908101604052806003600a811115620011ca57fe5b81525060066000836000191660001916815260200190815260200160002060008201518160000160006101000a81548160ff0219169083600a8111156200120d57fe5b02179055509050505b50565b60003073ffffffffffffffffffffffffffffffffffffffff1631620012826040805190810160405280600381526020017f55524c0000000000000000000000000000000000000000000000000000000000815250620026f8640100000000026401000000009004565b111562001343577ffee95ecae0c8f7f0743ec0ad254c78ab75e5ecca9f1ddcd9f11f9a98124b96bc60405180806020018281038252604f8152602001807f4f7261636c697a652049435820717565727920776173204e4f542073656e742c81526020017f20706c656173652061646420736f6d652045544820746f20636f76657220666f81526020017f722074686520717565727920666565000000000000000000000000000000000081525060600191505060405180910390a16200150b565b7ffee95ecae0c8f7f0743ec0ad254c78ab75e5ecca9f1ddcd9f11f9a98124b96bc6040518080602001828103825260398152602001807f4f7261636c697a6520494358207175657279207761732073656e742c2073746181526020017f6e64696e6720627920666f722074686520616e737765722e2e0000000000000081525060400191505060405180910390a1620014a36040805190810160405280600381526020017f55524c0000000000000000000000000000000000000000000000000000000000815250608060405190810160405280604981526020017f6a736f6e2868747470733a2f2f6170692e636f696e6d61726b65746361702e6381526020017f6f6d2f76322f7469636b65722f323039392f292e646174612e71756f7465732e81526020017f5553442e7072696365000000000000000000000000000000000000000000000081525062002af9640100000000026401000000009004565b90506020604051908101604052806004600a811115620014bf57fe5b81525060066000836000191660001916815260200190815260200160002060008201518160000160006101000a81548160ff0219169083600a8111156200150257fe5b02179055509050505b50565b60003073ffffffffffffffffffffffffffffffffffffffff1631620015776040805190810160405280600381526020017f55524c0000000000000000000000000000000000000000000000000000000000815250620026f8640100000000026401000000009004565b111562001638577ffee95ecae0c8f7f0743ec0ad254c78ab75e5ecca9f1ddcd9f11f9a98124b96bc60405180806020018281038252604f8152602001807f4f7261636c697a6520424e4220717565727920776173204e4f542073656e742c81526020017f20706c656173652061646420736f6d652045544820746f20636f76657220666f81526020017f722074686520717565727920666565000000000000000000000000000000000081525060600191505060405180910390a162001800565b7ffee95ecae0c8f7f0743ec0ad254c78ab75e5ecca9f1ddcd9f11f9a98124b96bc6040518080602001828103825260398152602001807f4f7261636c697a6520424e42207175657279207761732073656e742c2073746181526020017f6e64696e6720627920666f722074686520616e737765722e2e0000000000000081525060400191505060405180910390a1620017986040805190810160405280600381526020017f55524c0000000000000000000000000000000000000000000000000000000000815250608060405190810160405280604981526020017f6a736f6e2868747470733a2f2f6170692e636f696e6d61726b65746361702e6381526020017f6f6d2f76322f7469636b65722f313833392f292e646174612e71756f7465732e81526020017f5553442e7072696365000000000000000000000000000000000000000000000081525062002af9640100000000026401000000009004565b90506020604051908101604052806005600a811115620017b457fe5b81525060066000836000191660001916815260200190815260200160002060008201518160000160006101000a81548160ff0219169083600a811115620017f757fe5b02179055509050505b50565b60003073ffffffffffffffffffffffffffffffffffffffff16316200186c6040805190810160405280600381526020017f55524c0000000000000000000000000000000000000000000000000000000000815250620026f8640100000000026401000000009004565b11156200192d577ffee95ecae0c8f7f0743ec0ad254c78ab75e5ecca9f1ddcd9f11f9a98124b96bc60405180806020018281038252604f8152602001807f4f7261636c697a65204f4d4720717565727920776173204e4f542073656e742c81526020017f20706c656173652061646420736f6d652045544820746f20636f76657220666f81526020017f722074686520717565727920666565000000000000000000000000000000000081525060600191505060405180910390a162001af5565b7ffee95ecae0c8f7f0743ec0ad254c78ab75e5ecca9f1ddcd9f11f9a98124b96bc6040518080602001828103825260398152602001807f4f7261636c697a65204f4d47207175657279207761732073656e742c2073746181526020017f6e64696e6720627920666f722074686520616e737765722e2e0000000000000081525060400191505060405180910390a162001a8d6040805190810160405280600381526020017f55524c0000000000000000000000000000000000000000000000000000000000815250608060405190810160405280604981526020017f6a736f6e2868747470733a2f2f6170692e636f696e6d61726b65746361702e6381526020017f6f6d2f76322f7469636b65722f313830382f292e646174612e71756f7465732e81526020017f5553442e7072696365000000000000000000000000000000000000000000000081525062002af9640100000000026401000000009004565b90506020604051908101604052806006600a81111562001aa957fe5b81525060066000836000191660001916815260200190815260200160002060008201518160000160006101000a81548160ff0219169083600a81111562001aec57fe5b02179055509050505b50565b60003073ffffffffffffffffffffffffffffffffffffffff163162001b616040805190810160405280600381526020017f55524c0000000000000000000000000000000000000000000000000000000000815250620026f8640100000000026401000000009004565b111562001c22577ffee95ecae0c8f7f0743ec0ad254c78ab75e5ecca9f1ddcd9f11f9a98124b96bc60405180806020018281038252604f8152602001807f4f7261636c697a65205a494c20717565727920776173204e4f542073656e742c81526020017f20706c656173652061646420736f6d652045544820746f20636f76657220666f81526020017f722074686520717565727920666565000000000000000000000000000000000081525060600191505060405180910390a162001dea565b7ffee95ecae0c8f7f0743ec0ad254c78ab75e5ecca9f1ddcd9f11f9a98124b96bc6040518080602001828103825260398152602001807f4f7261636c697a65205a494c207175657279207761732073656e742c2073746181526020017f6e64696e6720627920666f722074686520616e737765722e2e0000000000000081525060400191505060405180910390a162001d826040805190810160405280600381526020017f55524c0000000000000000000000000000000000000000000000000000000000815250608060405190810160405280604981526020017f6a736f6e2868747470733a2f2f6170692e636f696e6d61726b65746361702e6381526020017f6f6d2f76322f7469636b65722f323436392f292e646174612e71756f7465732e81526020017f5553442e7072696365000000000000000000000000000000000000000000000081525062002af9640100000000026401000000009004565b90506020604051908101604052806007600a81111562001d9e57fe5b81525060066000836000191660001916815260200190815260200160002060008201518160000160006101000a81548160ff0219169083600a81111562001de157fe5b02179055509050505b50565b60003073ffffffffffffffffffffffffffffffffffffffff163162001e566040805190810160405280600381526020017f55524c0000000000000000000000000000000000000000000000000000000000815250620026f8640100000000026401000000009004565b111562001f17577ffee95ecae0c8f7f0743ec0ad254c78ab75e5ecca9f1ddcd9f11f9a98124b96bc60405180806020018281038252604e8152602001807f4f7261636c697a6520414520717565727920776173204e4f542073656e742c2081526020017f706c656173652061646420736f6d652045544820746f20636f76657220666f7281526020017f207468652071756572792066656500000000000000000000000000000000000081525060600191505060405180910390a1620020df565b7ffee95ecae0c8f7f0743ec0ad254c78ab75e5ecca9f1ddcd9f11f9a98124b96bc6040518080602001828103825260388152602001807f4f7261636c697a65204145207175657279207761732073656e742c207374616e81526020017f64696e6720627920666f722074686520616e737765722e2e000000000000000081525060400191505060405180910390a1620020776040805190810160405280600381526020017f55524c0000000000000000000000000000000000000000000000000000000000815250608060405190810160405280604981526020017f6a736f6e2868747470733a2f2f6170692e636f696e6d61726b65746361702e6381526020017f6f6d2f76322f7469636b65722f313730302f292e646174612e71756f7465732e81526020017f5553442e7072696365000000000000000000000000000000000000000000000081525062002af9640100000000026401000000009004565b90506020604051908101604052806008600a8111156200209357fe5b81525060066000836000191660001916815260200190815260200160002060008201518160000160006101000a81548160ff0219169083600a811115620020d657fe5b02179055509050505b50565b60003073ffffffffffffffffffffffffffffffffffffffff16316200214b6040805190810160405280600381526020017f55524c0000000000000000000000000000000000000000000000000000000000815250620026f8640100000000026401000000009004565b11156200220c577ffee95ecae0c8f7f0743ec0ad254c78ab75e5ecca9f1ddcd9f11f9a98124b96bc60405180806020018281038252604f8152602001807f4f7261636c697a65205a525820717565727920776173204e4f542073656e742c81526020017f20706c656173652061646420736f6d652045544820746f20636f76657220666f81526020017f722074686520717565727920666565000000000000000000000000000000000081525060600191505060405180910390a1620023d4565b7ffee95ecae0c8f7f0743ec0ad254c78ab75e5ecca9f1ddcd9f11f9a98124b96bc6040518080602001828103825260398152602001807f4f7261636c697a65205a5258207175657279207761732073656e742c2073746181526020017f6e64696e6720627920666f722074686520616e737765722e2e0000000000000081525060400191505060405180910390a16200236c6040805190810160405280600381526020017f55524c0000000000000000000000000000000000000000000000000000000000815250608060405190810160405280604981526020017f6a736f6e2868747470733a2f2f6170692e636f696e6d61726b65746361702e6381526020017f6f6d2f76322f7469636b65722f313839362f292e646174612e71756f7465732e81526020017f5553442e7072696365000000000000000000000000000000000000000000000081525062002af9640100000000026401000000009004565b90506020604051908101604052806009600a8111156200238857fe5b81525060066000836000191660001916815260200190815260200160002060008201518160000160006101000a81548160ff0219169083600a811115620023cb57fe5b02179055509050505b50565b60003073ffffffffffffffffffffffffffffffffffffffff1631620024406040805190810160405280600381526020017f55524c0000000000000000000000000000000000000000000000000000000000815250620026f8640100000000026401000000009004565b111562002501577ffee95ecae0c8f7f0743ec0ad254c78ab75e5ecca9f1ddcd9f11f9a98124b96bc60405180806020018281038252604f8152602001807f4f7261636c697a652042544d20717565727920776173204e4f542073656e742c81526020017f20706c656173652061646420736f6d652045544820746f20636f76657220666f81526020017f722074686520717565727920666565000000000000000000000000000000000081525060600191505060405180910390a1620026c8565b7ffee95ecae0c8f7f0743ec0ad254c78ab75e5ecca9f1ddcd9f11f9a98124b96bc6040518080602001828103825260398152602001807f4f7261636c697a652042544d207175657279207761732073656e742c2073746181526020017f6e64696e6720627920666f722074686520616e737765722e2e0000000000000081525060400191505060405180910390a1620026616040805190810160405280600381526020017f55524c0000000000000000000000000000000000000000000000000000000000815250608060405190810160405280604981526020017f6a736f6e2868747470733a2f2f6170692e636f696e6d61726b65746361702e6381526020017f6f6d2f76322f7469636b65722f313836362f292e646174612e71756f7465732e81526020017f5553442e7072696365000000000000000000000000000000000000000000000081525062002af9640100000000026401000000009004565b9050602060405190810160405280600a808111156200267c57fe5b81525060066000836000191660001916815260200190815260200160002060008201518160000160006101000a81548160ff0219169083600a811115620026bf57fe5b02179055509050505b50565b6000813b9050919050565b6000620026f1620030d7640100000000026401000000009004565b9050919050565b6000806000809054906101000a900473ffffffffffffffffffffffffffffffffffffffff1673ffffffffffffffffffffffffffffffffffffffff1614806200277a57506000620027786000809054906101000a900473ffffffffffffffffffffffffffffffffffffffff16620026cb640100000000026401000000009004565b145b156200279d576200279b6000620026d6640100000000026401000000009004565b505b6000809054906101000a900473ffffffffffffffffffffffffffffffffffffffff1673ffffffffffffffffffffffffffffffffffffffff166338cc48316040518163ffffffff167c0100000000000000000000000000000000000000000000000000000000028152600401602060405180830381600087803b1580156200282357600080fd5b505af115801562002838573d6000803e3d6000fd5b505050506040513d60208110156200284f57600080fd5b810190808051906020019092919050505073ffffffffffffffffffffffffffffffffffffffff16600160009054906101000a900473ffffffffffffffffffffffffffffffffffffffff1673ffffffffffffffffffffffffffffffffffffffff16141515620029bb576000809054906101000a900473ffffffffffffffffffffffffffffffffffffffff1673ffffffffffffffffffffffffffffffffffffffff166338cc48316040518163ffffffff167c0100000000000000000000000000000000000000000000000000000000028152600401602060405180830381600087803b1580156200293d57600080fd5b505af115801562002952573d6000803e3d6000fd5b505050506040513d60208110156200296957600080fd5b8101908080519060200190929190505050600160006101000a81548173ffffffffffffffffffffffffffffffffffffffff021916908373ffffffffffffffffffffffffffffffffffffffff1602179055505b600160009054906101000a900473ffffffffffffffffffffffffffffffffffffffff1673ffffffffffffffffffffffffffffffffffffffff1663524f3889836040518263ffffffff167c01000000000000000000000000000000000000000000000000000000000281526004018080602001828103825283818151815260200191508051906020019080838360005b8381101562002a6757808201518184015260208101905062002a4a565b50505050905090810190601f16801562002a955780820380516001836020036101000a031916815260200191505b5092505050602060405180830381600087803b15801562002ab557600080fd5b505af115801562002aca573d6000803e3d6000fd5b505050506040513d602081101562002ae157600080fd5b81019080805190602001909291905050509050919050565b60008060008060009054906101000a900473ffffffffffffffffffffffffffffffffffffffff1673ffffffffffffffffffffffffffffffffffffffff16148062002b7d5750600062002b7b6000809054906101000a900473ffffffffffffffffffffffffffffffffffffffff16620026cb640100000000026401000000009004565b145b1562002ba05762002b9e6000620026d6640100000000026401000000009004565b505b6000809054906101000a900473ffffffffffffffffffffffffffffffffffffffff1673ffffffffffffffffffffffffffffffffffffffff166338cc48316040518163ffffffff167c0100000000000000000000000000000000000000000000000000000000028152600401602060405180830381600087803b15801562002c2657600080fd5b505af115801562002c3b573d6000803e3d6000fd5b505050506040513d602081101562002c5257600080fd5b810190808051906020019092919050505073ffffffffffffffffffffffffffffffffffffffff16600160009054906101000a900473ffffffffffffffffffffffffffffffffffffffff1673ffffffffffffffffffffffffffffffffffffffff1614151562002dbe576000809054906101000a900473ffffffffffffffffffffffffffffffffffffffff1673ffffffffffffffffffffffffffffffffffffffff166338cc48316040518163ffffffff167c0100000000000000000000000000000000000000000000000000000000028152600401602060405180830381600087803b15801562002d4057600080fd5b505af115801562002d55573d6000803e3d6000fd5b505050506040513d602081101562002d6c57600080fd5b8101908080519060200190929190505050600160006101000a81548173ffffffffffffffffffffffffffffffffffffffff021916908373ffffffffffffffffffffffffffffffffffffffff1602179055505b600160009054906101000a900473ffffffffffffffffffffffffffffffffffffffff1673ffffffffffffffffffffffffffffffffffffffff1663524f3889856040518263ffffffff167c01000000000000000000000000000000000000000000000000000000000281526004018080602001828103825283818151815260200191508051906020019080838360005b8381101562002e6a57808201518184015260208101905062002e4d565b50505050905090810190601f16801562002e985780820380516001836020036101000a031916815260200191505b5092505050602060405180830381600087803b15801562002eb857600080fd5b505af115801562002ecd573d6000803e3d6000fd5b505050506040513d602081101562002ee457600080fd5b8101908080519060200190929190505050905062030d403a02670de0b6b3a76400000181111562002f1c5760006001029150620030d0565b600160009054906101000a900473ffffffffffffffffffffffffffffffffffffffff1673ffffffffffffffffffffffffffffffffffffffff1663adf59f9982600087876040518563ffffffff167c0100000000000000000000000000000000000000000000000000000000028152600401808481526020018060200180602001838103835285818151815260200191508051906020019080838360005b8381101562002fd657808201518184015260208101905062002fb9565b50505050905090810190601f168015620030045780820380516001836020036101000a031916815260200191505b50838103825284818151815260200191508051906020019080838360005b838110156200303f57808201518184015260208101905062003022565b50505050905090810190601f1680156200306d5780820380516001836020036101000a031916815260200191505b50955050505050506020604051808303818588803b1580156200308f57600080fd5b505af1158015620030a4573d6000803e3d6000fd5b50505050506040513d6020811015620030bc57600080fd5b810190808051906020019092919050505091505b5092915050565b60008062003108731d3b2638a7cc9f2cb3d298a3da7a90b67e5506ed620026cb640100000000026401000000009004565b1115620031bc57731d3b2638a7cc9f2cb3d298a3da7a90b67e5506ed6000806101000a81548173ffffffffffffffffffffffffffffffffffffffff021916908373ffffffffffffffffffffffffffffffffffffffff160217905550620031b26040805190810160405280600b81526020017f6574685f6d61696e6e65740000000000000000000000000000000000000000008152506200362f640100000000026401000000009004565b600190506200362c565b6000620031ec73c03a2615d5efaf5f49f60b7bb6583eaec212fdf1620026cb640100000000026401000000009004565b1115620032a05773c03a2615d5efaf5f49f60b7bb6583eaec212fdf16000806101000a81548173ffffffffffffffffffffffffffffffffffffffff021916908373ffffffffffffffffffffffffffffffffffffffff160217905550620032966040805190810160405280600c81526020017f6574685f726f707374656e3300000000000000000000000000000000000000008152506200362f640100000000026401000000009004565b600190506200362c565b6000620032d073b7a07bcf2ba2f2703b24c0691b5278999c59ac7e620026cb640100000000026401000000009004565b1115620033845773b7a07bcf2ba2f2703b24c0691b5278999c59ac7e6000806101000a81548173ffffffffffffffffffffffffffffffffffffffff021916908373ffffffffffffffffffffffffffffffffffffffff1602179055506200337a6040805190810160405280600981526020017f6574685f6b6f76616e00000000000000000000000000000000000000000000008152506200362f640100000000026401000000009004565b600190506200362c565b6000620033b473146500cfd35b22e4a392fe0adc06de1a1368ed48620026cb640100000000026401000000009004565b1115620034685773146500cfd35b22e4a392fe0adc06de1a1368ed486000806101000a81548173ffffffffffffffffffffffffffffffffffffffff021916908373ffffffffffffffffffffffffffffffffffffffff1602179055506200345e6040805190810160405280600b81526020017f6574685f72696e6b6562790000000000000000000000000000000000000000008152506200362f640100000000026401000000009004565b600190506200362c565b600062003498736f485c8bf6fc43ea212e93bbf8ce046c7f1cb475620026cb640100000000026401000000009004565b1115620034fd57736f485c8bf6fc43ea212e93bbf8ce046c7f1cb4756000806101000a81548173ffffffffffffffffffffffffffffffffffffffff021916908373ffffffffffffffffffffffffffffffffffffffff160217905550600190506200362c565b60006200352d7320e12a1f859b3feae5fb2a0a32c18f5a65555bbf620026cb640100000000026401000000009004565b111562003592577320e12a1f859b3feae5fb2a0a32c18f5a65555bbf6000806101000a81548173ffffffffffffffffffffffffffffffffffffffff021916908373ffffffffffffffffffffffffffffffffffffffff160217905550600190506200362c565b6000620035c27351efaf4c8b3c9afbd5ab9f4bbc82784ab6ef8faa620026cb640100000000026401000000009004565b111562003627577351efaf4c8b3c9afbd5ab9f4bbc82784ab6ef8faa6000806101000a81548173ffffffffffffffffffffffffffffffffffffffff021916908373ffffffffffffffffffffffffffffffffffffffff160217905550600190506200362c565b600090505b90565b8060029080519060200190620036479291906200364b565b5050565b828054600181600116156101000203166002900490600052602060002090601f016020900481019282601f106200368e57805160ff1916838001178555620036bf565b82800160010185558215620036bf579182015b82811115620036be578251825591602001919060010190620036a1565b5b509050620036ce9190620036d2565b5090565b620036f791905b80821115620036f3576000816000905550600101620036d9565b5090565b90565b613e3f806200370a6000396000f3006080604052600436106100db576000357c0100000000000000000000000000000000000000000000000000000000900463ffffffff16806305e82023146100ed57806312065fe0146100f7578063262df77a14610122578063279e50f51461012c57806327b2cb761461013657806327dc297e1461014057806338bbfa50146101b7578063426d5ef1146102745780636201306c146102c7578063a05360be146102d1578063a0d07da7146102db578063a3367b91146102e5578063bbd501ed146102ef578063f716eb2e146102f9578063f84c49e014610303575b3480156100e757600080fd5b50600080fd5b6100f561030d565b005b34801561010357600080fd5b5061010c6105dc565b6040518082815260200191505060405180910390f35b61012a6105fb565b005b6101346108ca565b005b61013e610b99565b005b34801561014c57600080fd5b506101b56004803603810190808035600019169060200190929190803590602001908201803590602001908080601f0160208091040260200160405190810160405280939291908181526020018383808284378201915050505050509192919290505050610e68565b005b3480156101c357600080fd5b506102726004803603810190808035600019169060200190929190803590602001908201803590602001908080601f0160208091040260200160405190810160405280939291908181526020018383808284378201915050505050509192919290803590602001908201803590602001908080601f0160208091040260200160405190810160405280939291908181526020018383808284378201915050505050509192919290505050610eab565b005b34801561028057600080fd5b506102a360048036038101908080356000191690602001909291905050506117e7565b6040518082600a8111156102b357fe5b60ff16815260200191505060405180910390f35b6102cf611812565b005b6102d9611ae1565b005b6102e3611db0565b005b6102ed61207e565b005b6102f761234d565b005b61030161261c565b005b61030b6128eb565b005b60003073ffffffffffffffffffffffffffffffffffffffff16316103656040805190810160405280600381526020017f55524c0000000000000000000000000000000000000000000000000000000000815250612bba565b1115610424577ffee95ecae0c8f7f0743ec0ad254c78ab75e5ecca9f1ddcd9f11f9a98124b96bc60405180806020018281038252604f8152602001807f4f7261636c697a65205a494c20717565727920776173204e4f542073656e742c81526020017f20706c656173652061646420736f6d652045544820746f20636f76657220666f81526020017f722074686520717565727920666565000000000000000000000000000000000081525060600191505060405180910390a16105d9565b7ffee95ecae0c8f7f0743ec0ad254c78ab75e5ecca9f1ddcd9f11f9a98124b96bc6040518080602001828103825260398152602001807f4f7261636c697a65205a494c207175657279207761732073656e742c2073746181526020017f6e64696e6720627920666f722074686520616e737765722e2e0000000000000081525060400191505060405180910390a16105736040805190810160405280600381526020017f55524c0000000000000000000000000000000000000000000000000000000000815250608060405190810160405280604981526020017f6a736f6e2868747470733a2f2f6170692e636f696e6d61726b65746361702e6381526020017f6f6d2f76322f7469636b65722f323436392f292e646174612e71756f7465732e81526020017f5553442e70726963650000000000000000000000000000000000000000000000815250612f8a565b90506020604051908101604052806007600a81111561058e57fe5b81525060066000836000191660001916815260200190815260200160002060008201518160000160006101000a81548160ff0219169083600a8111156105d057fe5b02179055509050505b50565b60003073ffffffffffffffffffffffffffffffffffffffff1631905090565b60003073ffffffffffffffffffffffffffffffffffffffff16316106536040805190810160405280600381526020017f55524c0000000000000000000000000000000000000000000000000000000000815250612bba565b1115610712577ffee95ecae0c8f7f0743ec0ad254c78ab75e5ecca9f1ddcd9f11f9a98124b96bc60405180806020018281038252604f8152602001807f4f7261636c697a652049435820717565727920776173204e4f542073656e742c81526020017f20706c656173652061646420736f6d652045544820746f20636f76657220666f81526020017f722074686520717565727920666565000000000000000000000000000000000081525060600191505060405180910390a16108c7565b7ffee95ecae0c8f7f0743ec0ad254c78ab75e5ecca9f1ddcd9f11f9a98124b96bc6040518080602001828103825260398152602001807f4f7261636c697a6520494358207175657279207761732073656e742c2073746181526020017f6e64696e6720627920666f722074686520616e737765722e2e0000000000000081525060400191505060405180910390a16108616040805190810160405280600381526020017f55524c0000000000000000000000000000000000000000000000000000000000815250608060405190810160405280604981526020017f6a736f6e2868747470733a2f2f6170692e636f696e6d61726b65746361702e6381526020017f6f6d2f76322f7469636b65722f323039392f292e646174612e71756f7465732e81526020017f5553442e70726963650000000000000000000000000000000000000000000000815250612f8a565b90506020604051908101604052806004600a81111561087c57fe5b81525060066000836000191660001916815260200190815260200160002060008201518160000160006101000a81548160ff0219169083600a8111156108be57fe5b02179055509050505b50565b60003073ffffffffffffffffffffffffffffffffffffffff16316109226040805190810160405280600381526020017f55524c0000000000000000000000000000000000000000000000000000000000815250612bba565b11156109e1577ffee95ecae0c8f7f0743ec0ad254c78ab75e5ecca9f1ddcd9f11f9a98124b96bc60405180806020018281038252604f8152602001807f4f7261636c697a65205a525820717565727920776173204e4f542073656e742c81526020017f20706c656173652061646420736f6d652045544820746f20636f76657220666f81526020017f722074686520717565727920666565000000000000000000000000000000000081525060600191505060405180910390a1610b96565b7ffee95ecae0c8f7f0743ec0ad254c78ab75e5ecca9f1ddcd9f11f9a98124b96bc6040518080602001828103825260398152602001807f4f7261636c697a65205a5258207175657279207761732073656e742c2073746181526020017f6e64696e6720627920666f722074686520616e737765722e2e0000000000000081525060400191505060405180910390a1610b306040805190810160405280600381526020017f55524c0000000000000000000000000000000000000000000000000000000000815250608060405190810160405280604981526020017f6a736f6e2868747470733a2f2f6170692e636f696e6d61726b65746361702e6381526020017f6f6d2f76322f7469636b65722f313839362f292e646174612e71756f7465732e81526020017f5553442e70726963650000000000000000000000000000000000000000000000815250612f8a565b90506020604051908101604052806009600a811115610b4b57fe5b81525060066000836000191660001916815260200190815260200160002060008201518160000160006101000a81548160ff0219169083600a811115610b8d57fe5b02179055509050505b50565b60003073ffffffffffffffffffffffffffffffffffffffff1631610bf16040805190810160405280600381526020017f55524c0000000000000000000000000000000000000000000000000000000000815250612bba565b1115610cb0577ffee95ecae0c8f7f0743ec0ad254c78ab75e5ecca9f1ddcd9f11f9a98124b96bc60405180806020018281038252604f8152602001807f4f7261636c697a652045544820717565727920776173204e4f542073656e742c81526020017f20706c656173652061646420736f6d652045544820746f20636f76657220666f81526020017f722074686520717565727920666565000000000000000000000000000000000081525060600191505060405180910390a1610e65565b7ffee95ecae0c8f7f0743ec0ad254c78ab75e5ecca9f1ddcd9f11f9a98124b96bc6040518080602001828103825260398152602001807f4f7261636c697a6520455448207175657279207761732073656e742c2073746181526020017f6e64696e6720627920666f722074686520616e737765722e2e0000000000000081525060400191505060405180910390a1610dff6040805190810160405280600381526020017f55524c0000000000000000000000000000000000000000000000000000000000815250608060405190810160405280604181526020017f6a736f6e2868747470733a2f2f6170692e636f696e626173652e636f6d2f763281526020017f2f7072696365732f4554482d5553442f73706f74292e646174612e616d6f756e81526020017f7400000000000000000000000000000000000000000000000000000000000000815250612f8a565b90506020604051908101604052806000600a811115610e1a57fe5b81525060066000836000191660001916815260200190815260200160002060008201518160000160006101000a81548160ff0219169083600a811115610e5c57fe5b02179055509050505b50565b610ea7828260006040519080825280601f01601f191660200182016040528015610ea15781602001602082028038833980820191505090505b50610eab565b5050565b610eb3613d4f565b610ebb61352c565b73ffffffffffffffffffffffffffffffffffffffff163373ffffffffffffffffffffffffffffffffffffffff16141515610ef457600080fd5b600660008560001916600019168152602001908152602001600020602060405190810160405290816000820160009054906101000a900460ff16600a811115610f3957fe5b600a811115610f4457fe5b8152505090506000600a811115610f5757fe5b8160000151600a811115610f6757fe5b1415611012577f599a5df22e4b09176c6d41840b590d5eca7672685af51c038c8992c64d09ccfe836040518080602001828103825283818151815260200191508051906020019080838360005b83811015610fcf578082015181840152602081019050610fb4565b50505050905090810190601f168015610ffc5780820380516001836020036101000a031916815260200191505b509250505060405180910390a1611011610b99565b5b6001600a81111561101f57fe5b8160000151600a81111561102f57fe5b14156110da577f9f328f05f015c20758fe7c5469abaa1c1cf5e5aa74682d679941876cb770c481836040518080602001828103825283818151815260200191508051906020019080838360005b8381101561109757808201518184015260208101905061107c565b50505050905090810190601f1680156110c45780820380516001836020036101000a031916815260200191505b509250505060405180910390a16110d9611812565b5b6002600a8111156110e757fe5b8160000151600a8111156110f757fe5b14156111a2577f2d4b6bea85c1023c74a28804ce62ca61b5519dda192aa5a0e9df9811d58f50f4836040518080602001828103825283818151815260200191508051906020019080838360005b8381101561115f578082015181840152602081019050611144565b50505050905090810190601f16801561118c5780820380516001836020036101000a031916815260200191505b509250505060405180910390a16111a161234d565b5b6003600a8111156111af57fe5b8160000151600a8111156111bf57fe5b141561126a577f634e2efa96cf12d7ee51567bf3d388ceb53d29ffcfb00948bfce12653e5ffa51836040518080602001828103825283818151815260200191508051906020019080838360005b8381101561122757808201518184015260208101905061120c565b50505050905090810190601f1680156112545780820380516001836020036101000a031916815260200191505b509250505060405180910390a161126961207e565b5b6004600a81111561127757fe5b8160000151600a81111561128757fe5b1415611332577fa3f17072dd968837e4a17c15dde250e453bf6456f8a98b51dde57c9dca661a8d836040518080602001828103825283818151815260200191508051906020019080838360005b838110156112ef5780820151818401526020810190506112d4565b50505050905090810190601f16801561131c5780820380516001836020036101000a031916815260200191505b509250505060405180910390a16113316105fb565b5b6005600a81111561133f57fe5b8160000151600a81111561134f57fe5b14156113fa577f2b785429dfabab7e522473007d83ac2707b638046b4fe6f096a2d53286a3adf2836040518080602001828103825283818151815260200191508051906020019080838360005b838110156113b757808201518184015260208101905061139c565b50505050905090810190601f1680156113e45780820380516001836020036101000a031916815260200191505b509250505060405180910390a16113f96128eb565b5b6006600a81111561140757fe5b8160000151600a81111561141757fe5b14156114c2577f6428a8b77a4fc727a1629e5e9b4000f236f7400a2089ec714af6380a55ac26ef836040518080602001828103825283818151815260200191508051906020019080838360005b8381101561147f578082015181840152602081019050611464565b50505050905090810190601f1680156114ac5780820380516001836020036101000a031916815260200191505b509250505060405180910390a16114c1611ae1565b5b6007600a8111156114cf57fe5b8160000151600a8111156114df57fe5b141561158a577ff6c6f093a2641264c6f2bba35dccee520654694754f5378edc81a4939ad1af12836040518080602001828103825283818151815260200191508051906020019080838360005b8381101561154757808201518184015260208101905061152c565b50505050905090810190601f1680156115745780820380516001836020036101000a031916815260200191505b509250505060405180910390a161158961030d565b5b6008600a81111561159757fe5b8160000151600a8111156115a757fe5b1415611652577f92191e457856873f0897549a6baa90eb29a0a04a87412e8b3c0a460b846d8609836040518080602001828103825283818151815260200191508051906020019080838360005b8381101561160f5780820151818401526020810190506115f4565b50505050905090810190601f16801561163c5780820380516001836020036101000a031916815260200191505b509250505060405180910390a161165161261c565b5b6009600a81111561165f57fe5b8160000151600a81111561166f57fe5b141561171a577f2d3fb6444f3ed2c6d30777d3ad5c61c9a4402a0ce2ca9032284a19a33fb8d6ca836040518080602001828103825283818151815260200191508051906020019080838360005b838110156116d75780820151818401526020810190506116bc565b50505050905090810190601f1680156117045780820380516001836020036101000a031916815260200191505b509250505060405180910390a16117196108ca565b5b600a8081111561172657fe5b8160000151600a81111561173657fe5b14156117e1577ffae2934378bccb8f14d3f56e4673f0784c20efed1814c323ee6092a8a0e140dc836040518080602001828103825283818151815260200191508051906020019080838360005b8381101561179e578082015181840152602081019050611783565b50505050905090810190601f1680156117cb5780820380516001836020036101000a031916815260200191505b509250505060405180910390a16117e0611db0565b5b50505050565b60066020528060005260406000206000915090508060000160009054906101000a900460ff16905081565b60003073ffffffffffffffffffffffffffffffffffffffff163161186a6040805190810160405280600381526020017f55524c0000000000000000000000000000000000000000000000000000000000815250612bba565b1115611929577ffee95ecae0c8f7f0743ec0ad254c78ab75e5ecca9f1ddcd9f11f9a98124b96bc60405180806020018281038252604f8152602001807f4f7261636c697a6520454f5320717565727920776173204e4f542073656e742c81526020017f20706c656173652061646420736f6d652045544820746f20636f76657220666f81526020017f722074686520717565727920666565000000000000000000000000000000000081525060600191505060405180910390a1611ade565b7ffee95ecae0c8f7f0743ec0ad254c78ab75e5ecca9f1ddcd9f11f9a98124b96bc6040518080602001828103825260398152602001807f4f7261636c697a6520454f53207175657279207761732073656e742c2073746181526020017f6e64696e6720627920666f722074686520616e737765722e2e0000000000000081525060400191505060405180910390a1611a786040805190810160405280600381526020017f55524c0000000000000000000000000000000000000000000000000000000000815250608060405190810160405280604981526020017f6a736f6e2868747470733a2f2f6170692e636f696e6d61726b65746361702e6381526020017f6f6d2f76322f7469636b65722f313736352f292e646174612e71756f7465732e81526020017f5553442e70726963650000000000000000000000000000000000000000000000815250612f8a565b90506020604051908101604052806001600a811115611a9357fe5b81525060066000836000191660001916815260200190815260200160002060008201518160000160006101000a81548160ff0219169083600a811115611ad557fe5b02179055509050505b50565b60003073ffffffffffffffffffffffffffffffffffffffff1631611b396040805190810160405280600381526020017f55524c0000000000000000000000000000000000000000000000000000000000815250612bba565b1115611bf8577ffee95ecae0c8f7f0743ec0ad254c78ab75e5ecca9f1ddcd9f11f9a98124b96bc60405180806020018281038252604f8152602001807f4f7261636c697a65204f4d4720717565727920776173204e4f542073656e742c81526020017f20706c656173652061646420736f6d652045544820746f20636f76657220666f81526020017f722074686520717565727920666565000000000000000000000000000000000081525060600191505060405180910390a1611dad565b7ffee95ecae0c8f7f0743ec0ad254c78ab75e5ecca9f1ddcd9f11f9a98124b96bc6040518080602001828103825260398152602001807f4f7261636c697a65204f4d47207175657279207761732073656e742c2073746181526020017f6e64696e6720627920666f722074686520616e737765722e2e0000000000000081525060400191505060405180910390a1611d476040805190810160405280600381526020017f55524c0000000000000000000000000000000000000000000000000000000000815250608060405190810160405280604981526020017f6a736f6e2868747470733a2f2f6170692e636f696e6d61726b65746361702e6381526020017f6f6d2f76322f7469636b65722f313830382f292e646174612e71756f7465732e81526020017f5553442e70726963650000000000000000000000000000000000000000000000815250612f8a565b90506020604051908101604052806006600a811115611d6257fe5b81525060066000836000191660001916815260200190815260200160002060008201518160000160006101000a81548160ff0219169083600a811115611da457fe5b02179055509050505b50565b60003073ffffffffffffffffffffffffffffffffffffffff1631611e086040805190810160405280600381526020017f55524c0000000000000000000000000000000000000000000000000000000000815250612bba565b1115611ec7577ffee95ecae0c8f7f0743ec0ad254c78ab75e5ecca9f1ddcd9f11f9a98124b96bc60405180806020018281038252604f8152602001807f4f7261636c697a652042544d20717565727920776173204e4f542073656e742c81526020017f20706c656173652061646420736f6d652045544820746f20636f76657220666f81526020017f722074686520717565727920666565000000000000000000000000000000000081525060600191505060405180910390a161207b565b7ffee95ecae0c8f7f0743ec0ad254c78ab75e5ecca9f1ddcd9f11f9a98124b96bc6040518080602001828103825260398152602001807f4f7261636c697a652042544d207175657279207761732073656e742c2073746181526020017f6e64696e6720627920666f722074686520616e737765722e2e0000000000000081525060400191505060405180910390a16120166040805190810160405280600381526020017f55524c0000000000000000000000000000000000000000000000000000000000815250608060405190810160405280604981526020017f6a736f6e2868747470733a2f2f6170692e636f696e6d61726b65746361702e6381526020017f6f6d2f76322f7469636b65722f313836362f292e646174612e71756f7465732e81526020017f5553442e70726963650000000000000000000000000000000000000000000000815250612f8a565b9050602060405190810160405280600a8081111561203057fe5b81525060066000836000191660001916815260200190815260200160002060008201518160000160006101000a81548160ff0219169083600a81111561207257fe5b02179055509050505b50565b60003073ffffffffffffffffffffffffffffffffffffffff16316120d66040805190810160405280600381526020017f55524c0000000000000000000000000000000000000000000000000000000000815250612bba565b1115612195577ffee95ecae0c8f7f0743ec0ad254c78ab75e5ecca9f1ddcd9f11f9a98124b96bc60405180806020018281038252604f8152602001807f4f7261636c697a652056454e20717565727920776173204e4f542073656e742c81526020017f20706c656173652061646420736f6d652045544820746f20636f76657220666f81526020017f722074686520717565727920666565000000000000000000000000000000000081525060600191505060405180910390a161234a565b7ffee95ecae0c8f7f0743ec0ad254c78ab75e5ecca9f1ddcd9f11f9a98124b96bc6040518080602001828103825260398152602001807f4f7261636c697a652056454e207175657279207761732073656e742c2073746181526020017f6e64696e6720627920666f722074686520616e737765722e2e0000000000000081525060400191505060405180910390a16122e46040805190810160405280600381526020017f55524c0000000000000000000000000000000000000000000000000000000000815250608060405190810160405280604981526020017f6a736f6e2868747470733a2f2f6170692e636f696e6d61726b65746361702e6381526020017f6f6d2f76322f7469636b65722f313930342f292e646174612e71756f7465732e81526020017f5553442e70726963650000000000000000000000000000000000000000000000815250612f8a565b90506020604051908101604052806003600a8111156122ff57fe5b81525060066000836000191660001916815260200190815260200160002060008201518160000160006101000a81548160ff0219169083600a81111561234157fe5b02179055509050505b50565b60003073ffffffffffffffffffffffffffffffffffffffff16316123a56040805190810160405280600381526020017f55524c0000000000000000000000000000000000000000000000000000000000815250612bba565b1115612464577ffee95ecae0c8f7f0743ec0ad254c78ab75e5ecca9f1ddcd9f11f9a98124b96bc60405180806020018281038252604f8152602001807f4f7261636c697a652054525820717565727920776173204e4f542073656e742c81526020017f20706c656173652061646420736f6d652045544820746f20636f76657220666f81526020017f722074686520717565727920666565000000000000000000000000000000000081525060600191505060405180910390a1612619565b7ffee95ecae0c8f7f0743ec0ad254c78ab75e5ecca9f1ddcd9f11f9a98124b96bc6040518080602001828103825260398152602001807f4f7261636c697a6520545258207175657279207761732073656e742c2073746181526020017f6e64696e6720627920666f722074686520616e737765722e2e0000000000000081525060400191505060405180910390a16125b36040805190810160405280600381526020017f55524c0000000000000000000000000000000000000000000000000000000000815250608060405190810160405280604981526020017f6a736f6e2868747470733a2f2f6170692e636f696e6d61726b65746361702e6381526020017f6f6d2f76322f7469636b65722f313935382f292e646174612e71756f7465732e81526020017f5553442e70726963650000000000000000000000000000000000000000000000815250612f8a565b90506020604051908101604052806002600a8111156125ce57fe5b81525060066000836000191660001916815260200190815260200160002060008201518160000160006101000a81548160ff0219169083600a81111561261057fe5b02179055509050505b50565b60003073ffffffffffffffffffffffffffffffffffffffff16316126746040805190810160405280600381526020017f55524c0000000000000000000000000000000000000000000000000000000000815250612bba565b1115612733577ffee95ecae0c8f7f0743ec0ad254c78ab75e5ecca9f1ddcd9f11f9a98124b96bc60405180806020018281038252604e8152602001807f4f7261636c697a6520414520717565727920776173204e4f542073656e742c2081526020017f706c656173652061646420736f6d652045544820746f20636f76657220666f7281526020017f207468652071756572792066656500000000000000000000000000000000000081525060600191505060405180910390a16128e8565b7ffee95ecae0c8f7f0743ec0ad254c78ab75e5ecca9f1ddcd9f11f9a98124b96bc6040518080602001828103825260388152602001807f4f7261636c697a65204145207175657279207761732073656e742c207374616e81526020017f64696e6720627920666f722074686520616e737765722e2e000000000000000081525060400191505060405180910390a16128826040805190810160405280600381526020017f55524c0000000000000000000000000000000000000000000000000000000000815250608060405190810160405280604981526020017f6a736f6e2868747470733a2f2f6170692e636f696e6d61726b65746361702e6381526020017f6f6d2f76322f7469636b65722f313730302f292e646174612e71756f7465732e81526020017f5553442e70726963650000000000000000000000000000000000000000000000815250612f8a565b90506020604051908101604052806008600a81111561289d57fe5b81525060066000836000191660001916815260200190815260200160002060008201518160000160006101000a81548160ff0219169083600a8111156128df57fe5b02179055509050505b50565b60003073ffffffffffffffffffffffffffffffffffffffff16316129436040805190810160405280600381526020017f55524c0000000000000000000000000000000000000000000000000000000000815250612bba565b1115612a02577ffee95ecae0c8f7f0743ec0ad254c78ab75e5ecca9f1ddcd9f11f9a98124b96bc60405180806020018281038252604f8152602001807f4f7261636c697a6520424e4220717565727920776173204e4f542073656e742c81526020017f20706c656173652061646420736f6d652045544820746f20636f76657220666f81526020017f722074686520717565727920666565000000000000000000000000000000000081525060600191505060405180910390a1612bb7565b7ffee95ecae0c8f7f0743ec0ad254c78ab75e5ecca9f1ddcd9f11f9a98124b96bc6040518080602001828103825260398152602001807f4f7261636c697a6520424e42207175657279207761732073656e742c2073746181526020017f6e64696e6720627920666f722074686520616e737765722e2e0000000000000081525060400191505060405180910390a1612b516040805190810160405280600381526020017f55524c0000000000000000000000000000000000000000000000000000000000815250608060405190810160405280604981526020017f6a736f6e2868747470733a2f2f6170692e636f696e6d61726b65746361702e6381526020017f6f6d2f76322f7469636b65722f313833392f292e646174612e71756f7465732e81526020017f5553442e70726963650000000000000000000000000000000000000000000000815250612f8a565b90506020604051908101604052806005600a811115612b6c57fe5b81525060066000836000191660001916815260200190815260200160002060008201518160000160006101000a81548160ff0219169083600a811115612bae57fe5b02179055509050505b50565b6000806000809054906101000a900473ffffffffffffffffffffffffffffffffffffffff1673ffffffffffffffffffffffffffffffffffffffff161480612c2a57506000612c286000809054906101000a900473ffffffffffffffffffffffffffffffffffffffff1661388a565b145b15612c3b57612c396000613895565b505b6000809054906101000a900473ffffffffffffffffffffffffffffffffffffffff1673ffffffffffffffffffffffffffffffffffffffff166338cc48316040518163ffffffff167c0100000000000000000000000000000000000000000000000000000000028152600401602060405180830381600087803b158015612cc057600080fd5b505af1158015612cd4573d6000803e3d6000fd5b505050506040513d6020811015612cea57600080fd5b810190808051906020019092919050505073ffffffffffffffffffffffffffffffffffffffff16600160009054906101000a900473ffffffffffffffffffffffffffffffffffffffff1673ffffffffffffffffffffffffffffffffffffffff16141515612e52576000809054906101000a900473ffffffffffffffffffffffffffffffffffffffff1673ffffffffffffffffffffffffffffffffffffffff166338cc48316040518163ffffffff167c0100000000000000000000000000000000000000000000000000000000028152600401602060405180830381600087803b158015612dd657600080fd5b505af1158015612dea573d6000803e3d6000fd5b505050506040513d6020811015612e0057600080fd5b8101908080519060200190929190505050600160006101000a81548173ffffffffffffffffffffffffffffffffffffffff021916908373ffffffffffffffffffffffffffffffffffffffff1602179055505b600160009054906101000a900473ffffffffffffffffffffffffffffffffffffffff1673ffffffffffffffffffffffffffffffffffffffff1663524f3889836040518263ffffffff167c01000000000000000000000000000000000000000000000000000000000281526004018080602001828103825283818151815260200191508051906020019080838360005b83811015612efc578082015181840152602081019050612ee1565b50505050905090810190601f168015612f295780820380516001836020036101000a031916815260200191505b5092505050602060405180830381600087803b158015612f4857600080fd5b505af1158015612f5c573d6000803e3d6000fd5b505050506040513d6020811015612f7257600080fd5b81019080805190602001909291905050509050919050565b60008060008060009054906101000a900473ffffffffffffffffffffffffffffffffffffffff1673ffffffffffffffffffffffffffffffffffffffff161480612ffc57506000612ffa6000809054906101000a900473ffffffffffffffffffffffffffffffffffffffff1661388a565b145b1561300d5761300b6000613895565b505b6000809054906101000a900473ffffffffffffffffffffffffffffffffffffffff1673ffffffffffffffffffffffffffffffffffffffff166338cc48316040518163ffffffff167c0100000000000000000000000000000000000000000000000000000000028152600401602060405180830381600087803b15801561309257600080fd5b505af11580156130a6573d6000803e3d6000fd5b505050506040513d60208110156130bc57600080fd5b810190808051906020019092919050505073ffffffffffffffffffffffffffffffffffffffff16600160009054906101000a900473ffffffffffffffffffffffffffffffffffffffff1673ffffffffffffffffffffffffffffffffffffffff16141515613224576000809054906101000a900473ffffffffffffffffffffffffffffffffffffffff1673ffffffffffffffffffffffffffffffffffffffff166338cc48316040518163ffffffff167c0100000000000000000000000000000000000000000000000000000000028152600401602060405180830381600087803b1580156131a857600080fd5b505af11580156131bc573d6000803e3d6000fd5b505050506040513d60208110156131d257600080fd5b8101908080519060200190929190505050600160006101000a81548173ffffffffffffffffffffffffffffffffffffffff021916908373ffffffffffffffffffffffffffffffffffffffff1602179055505b600160009054906101000a900473ffffffffffffffffffffffffffffffffffffffff1673ffffffffffffffffffffffffffffffffffffffff1663524f3889856040518263ffffffff167c01000000000000000000000000000000000000000000000000000000000281526004018080602001828103825283818151815260200191508051906020019080838360005b838110156132ce5780820151818401526020810190506132b3565b50505050905090810190601f1680156132fb5780820380516001836020036101000a031916815260200191505b5092505050602060405180830381600087803b15801561331a57600080fd5b505af115801561332e573d6000803e3d6000fd5b505050506040513d602081101561334457600080fd5b8101908080519060200190929190505050905062030d403a02670de0b6b3a76400000181111561337a5760006001029150613525565b600160009054906101000a900473ffffffffffffffffffffffffffffffffffffffff1673ffffffffffffffffffffffffffffffffffffffff1663adf59f9982600087876040518563ffffffff167c0100000000000000000000000000000000000000000000000000000000028152600401808481526020018060200180602001838103835285818151815260200191508051906020019080838360005b83811015613432578082015181840152602081019050613417565b50505050905090810190601f16801561345f5780820380516001836020036101000a031916815260200191505b50838103825284818151815260200191508051906020019080838360005b8381101561349857808201518184015260208101905061347d565b50505050905090810190601f1680156134c55780820380516001836020036101000a031916815260200191505b50955050505050506020604051808303818588803b1580156134e657600080fd5b505af11580156134fa573d6000803e3d6000fd5b50505050506040513d602081101561351157600080fd5b810190808051906020019092919050505091505b5092915050565b6000806000809054906101000a900473ffffffffffffffffffffffffffffffffffffffff1673ffffffffffffffffffffffffffffffffffffffff16148061359c5750600061359a6000809054906101000a900473ffffffffffffffffffffffffffffffffffffffff1661388a565b145b156135ad576135ab6000613895565b505b6000809054906101000a900473ffffffffffffffffffffffffffffffffffffffff1673ffffffffffffffffffffffffffffffffffffffff166338cc48316040518163ffffffff167c0100000000000000000000000000000000000000000000000000000000028152600401602060405180830381600087803b15801561363257600080fd5b505af1158015613646573d6000803e3d6000fd5b505050506040513d602081101561365c57600080fd5b810190808051906020019092919050505073ffffffffffffffffffffffffffffffffffffffff16600160009054906101000a900473ffffffffffffffffffffffffffffffffffffffff1673ffffffffffffffffffffffffffffffffffffffff161415156137c4576000809054906101000a900473ffffffffffffffffffffffffffffffffffffffff1673ffffffffffffffffffffffffffffffffffffffff166338cc48316040518163ffffffff167c0100000000000000000000000000000000000000000000000000000000028152600401602060405180830381600087803b15801561374857600080fd5b505af115801561375c573d6000803e3d6000fd5b505050506040513d602081101561377257600080fd5b8101908080519060200190929190505050600160006101000a81548173ffffffffffffffffffffffffffffffffffffffff021916908373ffffffffffffffffffffffffffffffffffffffff1602179055505b600160009054906101000a900473ffffffffffffffffffffffffffffffffffffffff1673ffffffffffffffffffffffffffffffffffffffff1663c281d19e6040518163ffffffff167c0100000000000000000000000000000000000000000000000000000000028152600401602060405180830381600087803b15801561384a57600080fd5b505af115801561385e573d6000803e3d6000fd5b505050506040513d602081101561387457600080fd5b8101908080519060200190929190505050905090565b6000813b9050919050565b600061389f6138a6565b9050919050565b6000806138c6731d3b2638a7cc9f2cb3d298a3da7a90b67e5506ed61388a565b111561396757731d3b2638a7cc9f2cb3d298a3da7a90b67e5506ed6000806101000a81548173ffffffffffffffffffffffffffffffffffffffff021916908373ffffffffffffffffffffffffffffffffffffffff16021790555061395e6040805190810160405280600b81526020017f6574685f6d61696e6e6574000000000000000000000000000000000000000000815250613d35565b60019050613d32565b600061398673c03a2615d5efaf5f49f60b7bb6583eaec212fdf161388a565b1115613a275773c03a2615d5efaf5f49f60b7bb6583eaec212fdf16000806101000a81548173ffffffffffffffffffffffffffffffffffffffff021916908373ffffffffffffffffffffffffffffffffffffffff160217905550613a1e6040805190810160405280600c81526020017f6574685f726f707374656e330000000000000000000000000000000000000000815250613d35565b60019050613d32565b6000613a4673b7a07bcf2ba2f2703b24c0691b5278999c59ac7e61388a565b1115613ae75773b7a07bcf2ba2f2703b24c0691b5278999c59ac7e6000806101000a81548173ffffffffffffffffffffffffffffffffffffffff021916908373ffffffffffffffffffffffffffffffffffffffff160217905550613ade6040805190810160405280600981526020017f6574685f6b6f76616e0000000000000000000000000000000000000000000000815250613d35565b60019050613d32565b6000613b0673146500cfd35b22e4a392fe0adc06de1a1368ed4861388a565b1115613ba75773146500cfd35b22e4a392fe0adc06de1a1368ed486000806101000a81548173ffffffffffffffffffffffffffffffffffffffff021916908373ffffffffffffffffffffffffffffffffffffffff160217905550613b9e6040805190810160405280600b81526020017f6574685f72696e6b656279000000000000000000000000000000000000000000815250613d35565b60019050613d32565b6000613bc6736f485c8bf6fc43ea212e93bbf8ce046c7f1cb47561388a565b1115613c2957736f485c8bf6fc43ea212e93bbf8ce046c7f1cb4756000806101000a81548173ffffffffffffffffffffffffffffffffffffffff021916908373ffffffffffffffffffffffffffffffffffffffff16021790555060019050613d32565b6000613c487320e12a1f859b3feae5fb2a0a32c18f5a65555bbf61388a565b1115613cab577320e12a1f859b3feae5fb2a0a32c18f5a65555bbf6000806101000a81548173ffffffffffffffffffffffffffffffffffffffff021916908373ffffffffffffffffffffffffffffffffffffffff16021790555060019050613d32565b6000613cca7351efaf4c8b3c9afbd5ab9f4bbc82784ab6ef8faa61388a565b1115613d2d577351efaf4c8b3c9afbd5ab9f4bbc82784ab6ef8faa6000806101000a81548173ffffffffffffffffffffffffffffffffffffffff021916908373ffffffffffffffffffffffffffffffffffffffff16021790555060019050613d32565b600090505b90565b8060029080519060200190613d4b929190613d6e565b5050565b6020604051908101604052806000600a811115613d6857fe5b81525090565b828054600181600116156101000203166002900490600052602060002090601f016020900481019282601f10613daf57805160ff1916838001178555613ddd565b82800160010185558215613ddd579182015b82811115613ddc578251825591602001919060010190613dc1565b5b509050613dea9190613dee565b5090565b613e1091905b80821115613e0c576000816000905550600101613df4565b5090565b905600a165627a7a723058201af7abd73858a521008143ff51db71d103c49c5ec5d6c6b92bbbf047f9e2d9d10029",
  "source": "pragma solidity ^0.4.21;\nimport \"installed_contracts/oraclize-api/contracts/usingOraclize.sol\";\n\ncontract OraclizeTest is usingOraclize {\n\n    address owner;\n\n    event LogInfo(string description);\n    event LogPriceUpdateEth(string price);\n    event LogPriceUpdateEos(string price);\n    event LogPriceUpdateTrx(string price);\n    event LogPriceUpdateVen(string price);\n    event LogPriceUpdateIcx(string price);\n    event LogPriceUpdateBnb(string price);\n    event LogPriceUpdateOmg(string price);\n    event LogPriceUpdateZil(string price);\n    event LogPriceUpdateAe(string price);\n    event LogPriceUpdateZrx(string price);\n    event LogPriceUpdateBtm(string price);\n    event LogUpdate(address indexed _owner, uint indexed _balance);\n    enum oraclizeState { ForEth, ForEos, ForTrx, ForVen, ForIcx, ForBnb, ForOmg, ForZil, ForAe, ForZrx, ForBtm}\n\n    struct oraclizeCallback {\n        oraclizeState oState;\n    }\n\n    mapping (bytes32 => oraclizeCallback) public oraclizeCallbacks;\n\n    // Constructor\n    function OraclizeTest()\n    payable\n    public {\n        owner = msg.sender;\n\n        emit LogUpdate(owner, address(this).balance);\n\n        // Replace the next line with your version:\n        OAR = OraclizeAddrResolverI(0x08193C23804b292452a6fdc0E88F42Fd121A2443);\n\n        oraclize_setProof(proofType_TLSNotary | proofStorage_IPFS);\n        updateEth();\n        updateEos();\n        updateTrx();\n        updateVen();\n        updateIcx();\n        updateBnb();\n        updateOmg();\n        updateZil();\n        updateAe();\n        updateZrx();\n        updateBtm();\n    }\n\n    // Fallback function\n    function()\n    public{\n        revert();\n    }\n\n    function __callback(bytes32 id, string result, bytes proof)\n    public {\n        require(msg.sender == oraclize_cbAddress());\n\n        oraclizeCallback memory o = oraclizeCallbacks[id];\n        if (o.oState == oraclizeState.ForEth){\n            emit LogPriceUpdateEth(result);\n            updateEth();\n        } \n        if (o.oState == oraclizeState.ForEos){\n            emit LogPriceUpdateEos(result);\n            updateEos();\n        } \n        if (o.oState == oraclizeState.ForTrx){\n            emit LogPriceUpdateTrx(result);\n            updateTrx();\n        } \n        if (o.oState == oraclizeState.ForVen){\n            emit LogPriceUpdateVen(result);\n            updateVen();\n        } \n        if (o.oState == oraclizeState.ForIcx){\n            emit LogPriceUpdateIcx(result);\n            updateIcx();\n        } \n        if (o.oState == oraclizeState.ForBnb){\n            emit LogPriceUpdateBnb(result);\n            updateBnb();\n        } \n        if (o.oState == oraclizeState.ForOmg){\n            emit LogPriceUpdateOmg(result);\n            updateOmg();\n        } \n        if (o.oState == oraclizeState.ForZil){\n            emit LogPriceUpdateZil(result);\n            updateZil();\n        } \n        if (o.oState == oraclizeState.ForAe){\n            emit LogPriceUpdateAe(result);\n            updateAe();\n        } \n        if (o.oState == oraclizeState.ForZrx){\n            emit LogPriceUpdateZrx(result);\n            updateZrx();\n        } \n        if (o.oState == oraclizeState.ForBtm){\n            emit LogPriceUpdateBtm(result);\n            updateBtm();\n        } \n    }\n\n    function getBalance()\n    public\n    returns (uint _balance) {\n        return address(this).balance;\n    }\n\n    function updateEth()\n    payable\n    public {\n        // Check if we have enough remaining funds\n        if (oraclize_getPrice(\"URL\") > address(this).balance) {\n            emit LogInfo(\"Oraclize ETH query was NOT sent, please add some ETH to cover for the query fee\");\n        } else {\n            emit LogInfo(\"Oraclize ETH query was sent, standing by for the answer..\");\n            bytes32 queryId = oraclize_query(\"URL\",\"json(https://api.coinbase.com/v2/prices/ETH-USD/spot).data.amount\");\n            oraclizeCallbacks[queryId] = oraclizeCallback(oraclizeState.ForEth);\n        }\n    }\n\n    function updateEos()\n    payable\n    public {\n        // Check if we have enough remaining funds\n        if (oraclize_getPrice(\"URL\") > address(this).balance) {\n            emit LogInfo(\"Oraclize EOS query was NOT sent, please add some ETH to cover for the query fee\");\n        } else {\n            emit LogInfo(\"Oraclize EOS query was sent, standing by for the answer..\");\n            bytes32 queryId2 = oraclize_query(\"URL\", \"json(https://api.coinmarketcap.com/v2/ticker/1765/).data.quotes.USD.price\");\n            oraclizeCallbacks[queryId2] = oraclizeCallback(oraclizeState.ForEos);\n        }\n    }\n\n    function updateTrx()\n    payable\n    public {\n        // Check if we have enough remaining funds\n        if (oraclize_getPrice(\"URL\") > address(this).balance) {\n            emit LogInfo(\"Oraclize TRX query was NOT sent, please add some ETH to cover for the query fee\");\n        } else {\n            emit LogInfo(\"Oraclize TRX query was sent, standing by for the answer..\");\n            bytes32 queryId3 = oraclize_query(\"URL\", \"json(https://api.coinmarketcap.com/v2/ticker/1958/).data.quotes.USD.price\");\n            oraclizeCallbacks[queryId3] = oraclizeCallback(oraclizeState.ForTrx);\n   \n        }\n    }\n\n    function updateVen()\n    payable\n    public {\n        // Check if we have enough remaining funds\n        if (oraclize_getPrice(\"URL\") > address(this).balance) {\n            emit LogInfo(\"Oraclize VEN query was NOT sent, please add some ETH to cover for the query fee\");\n        } else {\n            emit LogInfo(\"Oraclize VEN query was sent, standing by for the answer..\");\n            bytes32 queryId4 = oraclize_query(\"URL\", \"json(https://api.coinmarketcap.com/v2/ticker/1904/).data.quotes.USD.price\");\n            oraclizeCallbacks[queryId4] = oraclizeCallback(oraclizeState.ForVen);\n   \n        }\n    }\n\n    function updateIcx()\n    payable\n    public {\n        // Check if we have enough remaining funds\n        if (oraclize_getPrice(\"URL\") > address(this).balance) {\n            emit LogInfo(\"Oraclize ICX query was NOT sent, please add some ETH to cover for the query fee\");\n        } else {\n            emit LogInfo(\"Oraclize ICX query was sent, standing by for the answer..\");\n            bytes32 queryId5 = oraclize_query(\"URL\", \"json(https://api.coinmarketcap.com/v2/ticker/2099/).data.quotes.USD.price\");\n            oraclizeCallbacks[queryId5] = oraclizeCallback(oraclizeState.ForIcx);\n   \n        }\n    }\n    \n    function updateBnb()\n    payable\n    public {\n        // Check if we have enough remaining funds\n        if (oraclize_getPrice(\"URL\") > address(this).balance) {\n            emit LogInfo(\"Oraclize BNB query was NOT sent, please add some ETH to cover for the query fee\");\n        } else {\n            emit LogInfo(\"Oraclize BNB query was sent, standing by for the answer..\");\n            bytes32 queryId6 = oraclize_query(\"URL\", \"json(https://api.coinmarketcap.com/v2/ticker/1839/).data.quotes.USD.price\");\n            oraclizeCallbacks[queryId6] = oraclizeCallback(oraclizeState.ForBnb);\n   \n        }\n    }\n\n    function updateOmg()\n    payable\n    public {\n        // Check if we have enough remaining funds\n        if (oraclize_getPrice(\"URL\") > address(this).balance) {\n            emit LogInfo(\"Oraclize OMG query was NOT sent, please add some ETH to cover for the query fee\");\n        } else {\n            emit LogInfo(\"Oraclize OMG query was sent, standing by for the answer..\");\n            bytes32 queryId7 = oraclize_query(\"URL\", \"json(https://api.coinmarketcap.com/v2/ticker/1808/).data.quotes.USD.price\");\n            oraclizeCallbacks[queryId7] = oraclizeCallback(oraclizeState.ForOmg);\n   \n        }\n    }\n\n    function updateZil()\n    payable\n    public {\n        // Check if we have enough remaining funds\n        if (oraclize_getPrice(\"URL\") > address(this).balance) {\n            emit LogInfo(\"Oraclize ZIL query was NOT sent, please add some ETH to cover for the query fee\");\n        } else {\n            emit LogInfo(\"Oraclize ZIL query was sent, standing by for the answer..\");\n            bytes32 queryId8 = oraclize_query(\"URL\", \"json(https://api.coinmarketcap.com/v2/ticker/2469/).data.quotes.USD.price\");\n            oraclizeCallbacks[queryId8] = oraclizeCallback(oraclizeState.ForZil);\n   \n        }\n    }\n    function updateAe()\n    payable\n    public {\n        // Check if we have enough remaining funds\n        if (oraclize_getPrice(\"URL\") > address(this).balance) {\n            emit LogInfo(\"Oraclize AE query was NOT sent, please add some ETH to cover for the query fee\");\n        } else {\n            emit LogInfo(\"Oraclize AE query was sent, standing by for the answer..\");\n            bytes32 queryId9 = oraclize_query(\"URL\", \"json(https://api.coinmarketcap.com/v2/ticker/1700/).data.quotes.USD.price\");\n            oraclizeCallbacks[queryId9] = oraclizeCallback(oraclizeState.ForAe);\n        }\n    }\n    function updateZrx()\n    payable\n    public {\n        // Check if we have enough remaining funds\n        if (oraclize_getPrice(\"URL\") > address(this).balance) {\n            emit LogInfo(\"Oraclize ZRX query was NOT sent, please add some ETH to cover for the query fee\");\n        } else {\n            emit LogInfo(\"Oraclize ZRX query was sent, standing by for the answer..\");\n            bytes32 queryId10 = oraclize_query(\"URL\", \"json(https://api.coinmarketcap.com/v2/ticker/1896/).data.quotes.USD.price\");\n            oraclizeCallbacks[queryId10] = oraclizeCallback(oraclizeState.ForZrx);\n   \n        }\n    }\n\n    function updateBtm()\n    payable\n    public {\n        // Check if we have enough remaining funds\n        if (oraclize_getPrice(\"URL\") > address(this).balance) {\n            emit LogInfo(\"Oraclize BTM query was NOT sent, please add some ETH to cover for the query fee\");\n        } else {\n            emit LogInfo(\"Oraclize BTM query was sent, standing by for the answer..\");\n            bytes32 queryId11 = oraclize_query(\"URL\", \"json(https://api.coinmarketcap.com/v2/ticker/1866/).data.quotes.USD.price\");\n            oraclizeCallbacks[queryId11] = oraclizeCallback(oraclizeState.ForBtm);\n   \n        }\n    }\n}",
  "sourcePath": "/Users/jeffreyyu/Desktop/ClassRelated/CS359B/cs359b-diy-a-new-decentralized-index/oracleDapp/contracts/OraclizeTest.sol",
  "compiler": {
    "name": "solc",
    "version": "0.4.23+commit.124ca40d.Emscripten.clang"
  },
  "schemaVersion": "2.0.0",
  "updatedAt": "2018-05-14T17:33:36.352Z"
}