{
  "contractName": "OraclizeTest",
  "abi": [
    {
      "constant": true,
      "inputs": [
        {
          "name": "",
          "type": "bytes32"
        }
      ],
      "name": "oraclizeCallbacks",
      "outputs": [
        {
          "name": "oState",
          "type": "uint8"
        }
      ],
      "payable": false,
      "stateMutability": "view",
      "type": "function"
    },
    {
      "constant": true,
      "inputs": [],
      "name": "ETHUSD",
      "outputs": [
        {
          "name": "",
          "type": "string"
        }
      ],
      "payable": false,
      "stateMutability": "view",
      "type": "function"
    },
    {
      "constant": true,
      "inputs": [],
      "name": "BTCUSD",
      "outputs": [
        {
          "name": "",
          "type": "string"
        }
      ],
      "payable": false,
      "stateMutability": "view",
      "type": "function"
    },
    {
      "inputs": [],
      "payable": true,
      "stateMutability": "payable",
      "type": "constructor"
    },
    {
      "payable": false,
      "stateMutability": "nonpayable",
      "type": "fallback"
    },
    {
      "anonymous": false,
      "inputs": [
        {
          "indexed": false,
          "name": "description",
          "type": "string"
        }
      ],
      "name": "LogInfo",
      "type": "event"
    },
    {
      "anonymous": false,
      "inputs": [
        {
          "indexed": false,
          "name": "price",
          "type": "string"
        }
      ],
      "name": "LogPriceUpdate",
      "type": "event"
    },
    {
      "anonymous": false,
      "inputs": [
        {
          "indexed": false,
          "name": "price",
          "type": "string"
        }
      ],
      "name": "LogPriceUpdate2",
      "type": "event"
    },
    {
      "anonymous": false,
      "inputs": [
        {
          "indexed": true,
          "name": "_owner",
          "type": "address"
        },
        {
          "indexed": true,
          "name": "_balance",
          "type": "uint256"
        }
      ],
      "name": "LogUpdate",
      "type": "event"
    },
    {
      "constant": false,
      "inputs": [
        {
          "name": "myid",
          "type": "bytes32"
        },
        {
          "name": "result",
          "type": "string"
        }
      ],
      "name": "__callback",
      "outputs": [],
      "payable": false,
      "stateMutability": "nonpayable",
      "type": "function"
    },
    {
      "constant": false,
      "inputs": [
        {
          "name": "id",
          "type": "bytes32"
        },
        {
          "name": "result",
          "type": "string"
        },
        {
          "name": "proof",
          "type": "bytes"
        }
      ],
      "name": "__callback",
      "outputs": [],
      "payable": false,
      "stateMutability": "nonpayable",
      "type": "function"
    },
    {
      "constant": false,
      "inputs": [],
      "name": "getBalance",
      "outputs": [
        {
          "name": "_balance",
          "type": "uint256"
        }
      ],
      "payable": false,
      "stateMutability": "nonpayable",
      "type": "function"
    },
    {
      "constant": false,
      "inputs": [],
      "name": "update",
      "outputs": [],
      "payable": true,
      "stateMutability": "payable",
      "type": "function"
    },
    {
      "constant": false,
      "inputs": [],
      "name": "update2",
      "outputs": [],
      "payable": true,
      "stateMutability": "payable",
      "type": "function"
    }
  ],
  "bytecode": "0x608060405233600560006101000a81548173ffffffffffffffffffffffffffffffffffffffff021916908373ffffffffffffffffffffffffffffffffffffffff1602179055503073ffffffffffffffffffffffffffffffffffffffff1631600560009054906101000a900473ffffffffffffffffffffffffffffffffffffffff1673ffffffffffffffffffffffffffffffffffffffff167fd176e7c6abd789c341ab22cef27aa1fbc7461f5f9d6a6e55faa0b9df32a7051460405160405180910390a3736f485c8bf6fc43ea212e93bbf8ce046c7f1cb4756000806101000a81548173ffffffffffffffffffffffffffffffffffffffff021916908373ffffffffffffffffffffffffffffffffffffffff1602179055506200017860017f01000000000000000000000000000000000000000000000000000000000000000260107f01000000000000000000000000000000000000000000000000000000000000000217620001b0640100000000026401000000009004565b6200019162000564640100000000026401000000009004565b620001aa62000859640100000000026401000000009004565b62001b7c565b60008060009054906101000a900473ffffffffffffffffffffffffffffffffffffffff1673ffffffffffffffffffffffffffffffffffffffff16148062000231575060006200022f6000809054906101000a900473ffffffffffffffffffffffffffffffffffffffff1662000b4d640100000000026401000000009004565b145b15620002545762000252600062000b58640100000000026401000000009004565b505b6000809054906101000a900473ffffffffffffffffffffffffffffffffffffffff1673ffffffffffffffffffffffffffffffffffffffff166338cc48316040518163ffffffff167c0100000000000000000000000000000000000000000000000000000000028152600401602060405180830381600087803b158015620002da57600080fd5b505af1158015620002ef573d6000803e3d6000fd5b505050506040513d60208110156200030657600080fd5b810190808051906020019092919050505073ffffffffffffffffffffffffffffffffffffffff16600160009054906101000a900473ffffffffffffffffffffffffffffffffffffffff1673ffffffffffffffffffffffffffffffffffffffff1614151562000472576000809054906101000a900473ffffffffffffffffffffffffffffffffffffffff1673ffffffffffffffffffffffffffffffffffffffff166338cc48316040518163ffffffff167c0100000000000000000000000000000000000000000000000000000000028152600401602060405180830381600087803b158015620003f457600080fd5b505af115801562000409573d6000803e3d6000fd5b505050506040513d60208110156200042057600080fd5b8101908080519060200190929190505050600160006101000a81548173ffffffffffffffffffffffffffffffffffffffff021916908373ffffffffffffffffffffffffffffffffffffffff1602179055505b600160009054906101000a900473ffffffffffffffffffffffffffffffffffffffff1673ffffffffffffffffffffffffffffffffffffffff1663688dcfd7826040518263ffffffff167c010000000000000000000000000000000000000000000000000000000002815260040180827effffffffffffffffffffffffffffffffffffffffffffffffffffffffffffff19167effffffffffffffffffffffffffffffffffffffffffffffffffffffffffffff19168152602001915050600060405180830381600087803b1580156200054857600080fd5b505af11580156200055d573d6000803e3d6000fd5b5050505050565b60003073ffffffffffffffffffffffffffffffffffffffff1631620005cd6040805190810160405280600381526020017f55524c000000000000000000000000000000000000000000000000000000000081525062000b7a640100000000026401000000009004565b11156200068e577ffee95ecae0c8f7f0743ec0ad254c78ab75e5ecca9f1ddcd9f11f9a98124b96bc60405180806020018281038252604f8152602001807f4f7261636c697a652045544820717565727920776173204e4f542073656e742c81526020017f20706c656173652061646420736f6d652045544820746f20636f76657220666f81526020017f722074686520717565727920666565000000000000000000000000000000000081525060600191505060405180910390a162000856565b7ffee95ecae0c8f7f0743ec0ad254c78ab75e5ecca9f1ddcd9f11f9a98124b96bc6040518080602001828103825260398152602001807f4f7261636c697a6520455448207175657279207761732073656e742c2073746181526020017f6e64696e6720627920666f722074686520616e737765722e2e0000000000000081525060400191505060405180910390a1620007ee6040805190810160405280600381526020017f55524c0000000000000000000000000000000000000000000000000000000000815250608060405190810160405280604181526020017f6a736f6e2868747470733a2f2f6170692e636f696e626173652e636f6d2f763281526020017f2f7072696365732f4554482d5553442f73706f74292e646174612e616d6f756e81526020017f740000000000000000000000000000000000000000000000000000000000000081525062000f7b640100000000026401000000009004565b9050602060405190810160405280600060018111156200080a57fe5b81525060086000836000191660001916815260200190815260200160002060008201518160000160006101000a81548160ff021916908360018111156200084d57fe5b02179055509050505b50565b60003073ffffffffffffffffffffffffffffffffffffffff1631620008c26040805190810160405280600381526020017f55524c000000000000000000000000000000000000000000000000000000000081525062000b7a640100000000026401000000009004565b111562000983577ffee95ecae0c8f7f0743ec0ad254c78ab75e5ecca9f1ddcd9f11f9a98124b96bc60405180806020018281038252604f8152602001807f4f7261636c697a652042544320717565727920776173204e4f542073656e742c81526020017f20706c656173652061646420736f6d652045544820746f20636f76657220666f81526020017f722074686520717565727920666565000000000000000000000000000000000081525060600191505060405180910390a162000b4a565b7ffee95ecae0c8f7f0743ec0ad254c78ab75e5ecca9f1ddcd9f11f9a98124b96bc6040518080602001828103825260398152602001807f4f7261636c697a6520425443207175657279207761732073656e742c2073746181526020017f6e64696e6720627920666f722074686520616e737765722e2e0000000000000081525060400191505060405180910390a162000ae36040805190810160405280600381526020017f55524c0000000000000000000000000000000000000000000000000000000000815250608060405190810160405280604681526020017f6a736f6e2868747470733a2f2f6170692e636f696e6d61726b65746361702e6381526020017f6f6d2f76322f7469636b65722f312f292e646174612e71756f7465732e55534481526020017f2e7072696365000000000000000000000000000000000000000000000000000081525062000f7b640100000000026401000000009004565b905060206040519081016040528060018081111562000afe57fe5b81525060086000836000191660001916815260200190815260200160002060008201518160000160006101000a81548160ff0219169083600181111562000b4157fe5b02179055509050505b50565b6000813b9050919050565b600062000b7362001559640100000000026401000000009004565b9050919050565b6000806000809054906101000a900473ffffffffffffffffffffffffffffffffffffffff1673ffffffffffffffffffffffffffffffffffffffff16148062000bfc5750600062000bfa6000809054906101000a900473ffffffffffffffffffffffffffffffffffffffff1662000b4d640100000000026401000000009004565b145b1562000c1f5762000c1d600062000b58640100000000026401000000009004565b505b6000809054906101000a900473ffffffffffffffffffffffffffffffffffffffff1673ffffffffffffffffffffffffffffffffffffffff166338cc48316040518163ffffffff167c0100000000000000000000000000000000000000000000000000000000028152600401602060405180830381600087803b15801562000ca557600080fd5b505af115801562000cba573d6000803e3d6000fd5b505050506040513d602081101562000cd157600080fd5b810190808051906020019092919050505073ffffffffffffffffffffffffffffffffffffffff16600160009054906101000a900473ffffffffffffffffffffffffffffffffffffffff1673ffffffffffffffffffffffffffffffffffffffff1614151562000e3d576000809054906101000a900473ffffffffffffffffffffffffffffffffffffffff1673ffffffffffffffffffffffffffffffffffffffff166338cc48316040518163ffffffff167c0100000000000000000000000000000000000000000000000000000000028152600401602060405180830381600087803b15801562000dbf57600080fd5b505af115801562000dd4573d6000803e3d6000fd5b505050506040513d602081101562000deb57600080fd5b8101908080519060200190929190505050600160006101000a81548173ffffffffffffffffffffffffffffffffffffffff021916908373ffffffffffffffffffffffffffffffffffffffff1602179055505b600160009054906101000a900473ffffffffffffffffffffffffffffffffffffffff1673ffffffffffffffffffffffffffffffffffffffff1663524f3889836040518263ffffffff167c01000000000000000000000000000000000000000000000000000000000281526004018080602001828103825283818151815260200191508051906020019080838360005b8381101562000ee957808201518184015260208101905062000ecc565b50505050905090810190601f16801562000f175780820380516001836020036101000a031916815260200191505b5092505050602060405180830381600087803b15801562000f3757600080fd5b505af115801562000f4c573d6000803e3d6000fd5b505050506040513d602081101562000f6357600080fd5b81019080805190602001909291905050509050919050565b60008060008060009054906101000a900473ffffffffffffffffffffffffffffffffffffffff1673ffffffffffffffffffffffffffffffffffffffff16148062000fff5750600062000ffd6000809054906101000a900473ffffffffffffffffffffffffffffffffffffffff1662000b4d640100000000026401000000009004565b145b15620010225762001020600062000b58640100000000026401000000009004565b505b6000809054906101000a900473ffffffffffffffffffffffffffffffffffffffff1673ffffffffffffffffffffffffffffffffffffffff166338cc48316040518163ffffffff167c0100000000000000000000000000000000000000000000000000000000028152600401602060405180830381600087803b158015620010a857600080fd5b505af1158015620010bd573d6000803e3d6000fd5b505050506040513d6020811015620010d457600080fd5b810190808051906020019092919050505073ffffffffffffffffffffffffffffffffffffffff16600160009054906101000a900473ffffffffffffffffffffffffffffffffffffffff1673ffffffffffffffffffffffffffffffffffffffff1614151562001240576000809054906101000a900473ffffffffffffffffffffffffffffffffffffffff1673ffffffffffffffffffffffffffffffffffffffff166338cc48316040518163ffffffff167c0100000000000000000000000000000000000000000000000000000000028152600401602060405180830381600087803b158015620011c257600080fd5b505af1158015620011d7573d6000803e3d6000fd5b505050506040513d6020811015620011ee57600080fd5b8101908080519060200190929190505050600160006101000a81548173ffffffffffffffffffffffffffffffffffffffff021916908373ffffffffffffffffffffffffffffffffffffffff1602179055505b600160009054906101000a900473ffffffffffffffffffffffffffffffffffffffff1673ffffffffffffffffffffffffffffffffffffffff1663524f3889856040518263ffffffff167c01000000000000000000000000000000000000000000000000000000000281526004018080602001828103825283818151815260200191508051906020019080838360005b83811015620012ec578082015181840152602081019050620012cf565b50505050905090810190601f1680156200131a5780820380516001836020036101000a031916815260200191505b5092505050602060405180830381600087803b1580156200133a57600080fd5b505af11580156200134f573d6000803e3d6000fd5b505050506040513d60208110156200136657600080fd5b8101908080519060200190929190505050905062030d403a02670de0b6b3a7640000018111156200139e576000600102915062001552565b600160009054906101000a900473ffffffffffffffffffffffffffffffffffffffff1673ffffffffffffffffffffffffffffffffffffffff1663adf59f9982600087876040518563ffffffff167c0100000000000000000000000000000000000000000000000000000000028152600401808481526020018060200180602001838103835285818151815260200191508051906020019080838360005b83811015620014585780820151818401526020810190506200143b565b50505050905090810190601f168015620014865780820380516001836020036101000a031916815260200191505b50838103825284818151815260200191508051906020019080838360005b83811015620014c1578082015181840152602081019050620014a4565b50505050905090810190601f168015620014ef5780820380516001836020036101000a031916815260200191505b50955050505050506020604051808303818588803b1580156200151157600080fd5b505af115801562001526573d6000803e3d6000fd5b50505050506040513d60208110156200153e57600080fd5b810190808051906020019092919050505091505b5092915050565b6000806200158a731d3b2638a7cc9f2cb3d298a3da7a90b67e5506ed62000b4d640100000000026401000000009004565b11156200163e57731d3b2638a7cc9f2cb3d298a3da7a90b67e5506ed6000806101000a81548173ffffffffffffffffffffffffffffffffffffffff021916908373ffffffffffffffffffffffffffffffffffffffff160217905550620016346040805190810160405280600b81526020017f6574685f6d61696e6e657400000000000000000000000000000000000000000081525062001ab1640100000000026401000000009004565b6001905062001aae565b60006200166e73c03a2615d5efaf5f49f60b7bb6583eaec212fdf162000b4d640100000000026401000000009004565b1115620017225773c03a2615d5efaf5f49f60b7bb6583eaec212fdf16000806101000a81548173ffffffffffffffffffffffffffffffffffffffff021916908373ffffffffffffffffffffffffffffffffffffffff160217905550620017186040805190810160405280600c81526020017f6574685f726f707374656e33000000000000000000000000000000000000000081525062001ab1640100000000026401000000009004565b6001905062001aae565b60006200175273b7a07bcf2ba2f2703b24c0691b5278999c59ac7e62000b4d640100000000026401000000009004565b1115620018065773b7a07bcf2ba2f2703b24c0691b5278999c59ac7e6000806101000a81548173ffffffffffffffffffffffffffffffffffffffff021916908373ffffffffffffffffffffffffffffffffffffffff160217905550620017fc6040805190810160405280600981526020017f6574685f6b6f76616e000000000000000000000000000000000000000000000081525062001ab1640100000000026401000000009004565b6001905062001aae565b60006200183673146500cfd35b22e4a392fe0adc06de1a1368ed4862000b4d640100000000026401000000009004565b1115620018ea5773146500cfd35b22e4a392fe0adc06de1a1368ed486000806101000a81548173ffffffffffffffffffffffffffffffffffffffff021916908373ffffffffffffffffffffffffffffffffffffffff160217905550620018e06040805190810160405280600b81526020017f6574685f72696e6b65627900000000000000000000000000000000000000000081525062001ab1640100000000026401000000009004565b6001905062001aae565b60006200191a736f485c8bf6fc43ea212e93bbf8ce046c7f1cb47562000b4d640100000000026401000000009004565b11156200197f57736f485c8bf6fc43ea212e93bbf8ce046c7f1cb4756000806101000a81548173ffffffffffffffffffffffffffffffffffffffff021916908373ffffffffffffffffffffffffffffffffffffffff1602179055506001905062001aae565b6000620019af7320e12a1f859b3feae5fb2a0a32c18f5a65555bbf62000b4d640100000000026401000000009004565b111562001a14577320e12a1f859b3feae5fb2a0a32c18f5a65555bbf6000806101000a81548173ffffffffffffffffffffffffffffffffffffffff021916908373ffffffffffffffffffffffffffffffffffffffff1602179055506001905062001aae565b600062001a447351efaf4c8b3c9afbd5ab9f4bbc82784ab6ef8faa62000b4d640100000000026401000000009004565b111562001aa9577351efaf4c8b3c9afbd5ab9f4bbc82784ab6ef8faa6000806101000a81548173ffffffffffffffffffffffffffffffffffffffff021916908373ffffffffffffffffffffffffffffffffffffffff1602179055506001905062001aae565b600090505b90565b806002908051906020019062001ac992919062001acd565b5050565b828054600181600116156101000203166002900490600052602060002090601f016020900481019282601f1062001b1057805160ff191683800117855562001b41565b8280016001018555821562001b41579182015b8281111562001b4057825182559160200191906001019062001b23565b5b50905062001b50919062001b54565b5090565b62001b7991905b8082111562001b7557600081600090555060010162001b5b565b5090565b90565b61200f8062001b8c6000396000f30060806040526004361061008e576000357c0100000000000000000000000000000000000000000000000000000000900463ffffffff16806312065fe0146100a057806327dc297e146100cb57806338bbfa5014610142578063426d5ef1146101ff57806373db084414610252578063a2e62045146102e2578063d1bb76c2146102ec578063fc2650d8146102f6575b34801561009a57600080fd5b50600080fd5b3480156100ac57600080fd5b506100b5610386565b6040518082815260200191505060405180910390f35b3480156100d757600080fd5b506101406004803603810190808035600019169060200190929190803590602001908201803590602001908080601f01602080910402602001604051908101604052809392919081815260200183838082843782019150505050505091929192905050506103a5565b005b34801561014e57600080fd5b506101fd6004803603810190808035600019169060200190929190803590602001908201803590602001908080601f0160208091040260200160405190810160405280939291908181526020018383808284378201915050505050509192919290803590602001908201803590602001908080601f01602080910402602001604051908101604052809392919081815260200183838082843782019150505050505091929192905050506103e8565b005b34801561020b57600080fd5b5061022e6004803603810190808035600019169060200190929190505050610686565b6040518082600181111561023e57fe5b60ff16815260200191505060405180910390f35b34801561025e57600080fd5b506102676106b1565b6040518080602001828103825283818151815260200191508051906020019080838360005b838110156102a757808201518184015260208101905061028c565b50505050905090810190601f1680156102d45780820380516001836020036101000a031916815260200191505b509250505060405180910390f35b6102ea61074f565b005b6102f4610a1e565b005b34801561030257600080fd5b5061030b610cec565b6040518080602001828103825283818151815260200191508051906020019080838360005b8381101561034b578082015181840152602081019050610330565b50505050905090810190601f1680156103785780820380516001836020036101000a031916815260200191505b509250505060405180910390f35b60003073ffffffffffffffffffffffffffffffffffffffff1631905090565b6103e4828260006040519080825280601f01601f1916602001820160405280156103de5781602001602082028038833980820191505090505b506103e8565b5050565b6103f0611f1f565b6103f8610d8a565b73ffffffffffffffffffffffffffffffffffffffff163373ffffffffffffffffffffffffffffffffffffffff1614151561043157600080fd5b600860008560001916600019168152602001908152602001600020602060405190810160405290816000820160009054906101000a900460ff16600181111561047657fe5b600181111561048157fe5b8152505090506000600181111561049457fe5b816000015160018111156104a457fe5b14156105845782600690805190602001906104c0929190611f3e565b507f221dd4a47b82d98e10a2a0ebcfdd3314637ca70f414c6987ea6774a907cc06c26006604051808060200182810382528381815460018160011615610100020316600290048152602001915080546001816001161561010002031660029004801561056d5780601f106105425761010080835404028352916020019161056d565b820191906000526020600020905b81548152906001019060200180831161055057829003601f168201915b50509250505060405180910390a161058361074f565b5b60018081111561059057fe5b816000015160018111156105a057fe5b14156106805782600790805190602001906105bc929190611f3e565b507ff208790d4132e9accd72813d9f33fd116721b4adfe9e9223d6cbb41e1bca5225600760405180806020018281038252838181546001816001161561010002031660029004815260200191508054600181600116156101000203166002900480156106695780601f1061063e57610100808354040283529160200191610669565b820191906000526020600020905b81548152906001019060200180831161064c57829003601f168201915b50509250505060405180910390a161067f610a1e565b5b50505050565b60086020528060005260406000206000915090508060000160009054906101000a900460ff16905081565b60068054600181600116156101000203166002900480601f0160208091040260200160405190810160405280929190818152602001828054600181600116156101000203166002900480156107475780601f1061071c57610100808354040283529160200191610747565b820191906000526020600020905b81548152906001019060200180831161072a57829003601f168201915b505050505081565b60003073ffffffffffffffffffffffffffffffffffffffff16316107a76040805190810160405280600381526020017f55524c00000000000000000000000000000000000000000000000000000000008152506110e8565b1115610866577ffee95ecae0c8f7f0743ec0ad254c78ab75e5ecca9f1ddcd9f11f9a98124b96bc60405180806020018281038252604f8152602001807f4f7261636c697a652045544820717565727920776173204e4f542073656e742c81526020017f20706c656173652061646420736f6d652045544820746f20636f76657220666f81526020017f722074686520717565727920666565000000000000000000000000000000000081525060600191505060405180910390a1610a1b565b7ffee95ecae0c8f7f0743ec0ad254c78ab75e5ecca9f1ddcd9f11f9a98124b96bc6040518080602001828103825260398152602001807f4f7261636c697a6520455448207175657279207761732073656e742c2073746181526020017f6e64696e6720627920666f722074686520616e737765722e2e0000000000000081525060400191505060405180910390a16109b56040805190810160405280600381526020017f55524c0000000000000000000000000000000000000000000000000000000000815250608060405190810160405280604181526020017f6a736f6e2868747470733a2f2f6170692e636f696e626173652e636f6d2f763281526020017f2f7072696365732f4554482d5553442f73706f74292e646174612e616d6f756e81526020017f74000000000000000000000000000000000000000000000000000000000000008152506114b8565b9050602060405190810160405280600060018111156109d057fe5b81525060086000836000191660001916815260200190815260200160002060008201518160000160006101000a81548160ff02191690836001811115610a1257fe5b02179055509050505b50565b60003073ffffffffffffffffffffffffffffffffffffffff1631610a766040805190810160405280600381526020017f55524c00000000000000000000000000000000000000000000000000000000008152506110e8565b1115610b35577ffee95ecae0c8f7f0743ec0ad254c78ab75e5ecca9f1ddcd9f11f9a98124b96bc60405180806020018281038252604f8152602001807f4f7261636c697a652042544320717565727920776173204e4f542073656e742c81526020017f20706c656173652061646420736f6d652045544820746f20636f76657220666f81526020017f722074686520717565727920666565000000000000000000000000000000000081525060600191505060405180910390a1610ce9565b7ffee95ecae0c8f7f0743ec0ad254c78ab75e5ecca9f1ddcd9f11f9a98124b96bc6040518080602001828103825260398152602001807f4f7261636c697a6520425443207175657279207761732073656e742c2073746181526020017f6e64696e6720627920666f722074686520616e737765722e2e0000000000000081525060400191505060405180910390a1610c846040805190810160405280600381526020017f55524c0000000000000000000000000000000000000000000000000000000000815250608060405190810160405280604681526020017f6a736f6e2868747470733a2f2f6170692e636f696e6d61726b65746361702e6381526020017f6f6d2f76322f7469636b65722f312f292e646174612e71756f7465732e55534481526020017f2e707269636500000000000000000000000000000000000000000000000000008152506114b8565b9050602060405190810160405280600180811115610c9e57fe5b81525060086000836000191660001916815260200190815260200160002060008201518160000160006101000a81548160ff02191690836001811115610ce057fe5b02179055509050505b50565b60078054600181600116156101000203166002900480601f016020809104026020016040519081016040528092919081815260200182805460018160011615610100020316600290048015610d825780601f10610d5757610100808354040283529160200191610d82565b820191906000526020600020905b815481529060010190602001808311610d6557829003601f168201915b505050505081565b6000806000809054906101000a900473ffffffffffffffffffffffffffffffffffffffff1673ffffffffffffffffffffffffffffffffffffffff161480610dfa57506000610df86000809054906101000a900473ffffffffffffffffffffffffffffffffffffffff16611a5a565b145b15610e0b57610e096000611a65565b505b6000809054906101000a900473ffffffffffffffffffffffffffffffffffffffff1673ffffffffffffffffffffffffffffffffffffffff166338cc48316040518163ffffffff167c0100000000000000000000000000000000000000000000000000000000028152600401602060405180830381600087803b158015610e9057600080fd5b505af1158015610ea4573d6000803e3d6000fd5b505050506040513d6020811015610eba57600080fd5b810190808051906020019092919050505073ffffffffffffffffffffffffffffffffffffffff16600160009054906101000a900473ffffffffffffffffffffffffffffffffffffffff1673ffffffffffffffffffffffffffffffffffffffff16141515611022576000809054906101000a900473ffffffffffffffffffffffffffffffffffffffff1673ffffffffffffffffffffffffffffffffffffffff166338cc48316040518163ffffffff167c0100000000000000000000000000000000000000000000000000000000028152600401602060405180830381600087803b158015610fa657600080fd5b505af1158015610fba573d6000803e3d6000fd5b505050506040513d6020811015610fd057600080fd5b8101908080519060200190929190505050600160006101000a81548173ffffffffffffffffffffffffffffffffffffffff021916908373ffffffffffffffffffffffffffffffffffffffff1602179055505b600160009054906101000a900473ffffffffffffffffffffffffffffffffffffffff1673ffffffffffffffffffffffffffffffffffffffff1663c281d19e6040518163ffffffff167c0100000000000000000000000000000000000000000000000000000000028152600401602060405180830381600087803b1580156110a857600080fd5b505af11580156110bc573d6000803e3d6000fd5b505050506040513d60208110156110d257600080fd5b8101908080519060200190929190505050905090565b6000806000809054906101000a900473ffffffffffffffffffffffffffffffffffffffff1673ffffffffffffffffffffffffffffffffffffffff161480611158575060006111566000809054906101000a900473ffffffffffffffffffffffffffffffffffffffff16611a5a565b145b15611169576111676000611a65565b505b6000809054906101000a900473ffffffffffffffffffffffffffffffffffffffff1673ffffffffffffffffffffffffffffffffffffffff166338cc48316040518163ffffffff167c0100000000000000000000000000000000000000000000000000000000028152600401602060405180830381600087803b1580156111ee57600080fd5b505af1158015611202573d6000803e3d6000fd5b505050506040513d602081101561121857600080fd5b810190808051906020019092919050505073ffffffffffffffffffffffffffffffffffffffff16600160009054906101000a900473ffffffffffffffffffffffffffffffffffffffff1673ffffffffffffffffffffffffffffffffffffffff16141515611380576000809054906101000a900473ffffffffffffffffffffffffffffffffffffffff1673ffffffffffffffffffffffffffffffffffffffff166338cc48316040518163ffffffff167c0100000000000000000000000000000000000000000000000000000000028152600401602060405180830381600087803b15801561130457600080fd5b505af1158015611318573d6000803e3d6000fd5b505050506040513d602081101561132e57600080fd5b8101908080519060200190929190505050600160006101000a81548173ffffffffffffffffffffffffffffffffffffffff021916908373ffffffffffffffffffffffffffffffffffffffff1602179055505b600160009054906101000a900473ffffffffffffffffffffffffffffffffffffffff1673ffffffffffffffffffffffffffffffffffffffff1663524f3889836040518263ffffffff167c01000000000000000000000000000000000000000000000000000000000281526004018080602001828103825283818151815260200191508051906020019080838360005b8381101561142a57808201518184015260208101905061140f565b50505050905090810190601f1680156114575780820380516001836020036101000a031916815260200191505b5092505050602060405180830381600087803b15801561147657600080fd5b505af115801561148a573d6000803e3d6000fd5b505050506040513d60208110156114a057600080fd5b81019080805190602001909291905050509050919050565b60008060008060009054906101000a900473ffffffffffffffffffffffffffffffffffffffff1673ffffffffffffffffffffffffffffffffffffffff16148061152a575060006115286000809054906101000a900473ffffffffffffffffffffffffffffffffffffffff16611a5a565b145b1561153b576115396000611a65565b505b6000809054906101000a900473ffffffffffffffffffffffffffffffffffffffff1673ffffffffffffffffffffffffffffffffffffffff166338cc48316040518163ffffffff167c0100000000000000000000000000000000000000000000000000000000028152600401602060405180830381600087803b1580156115c057600080fd5b505af11580156115d4573d6000803e3d6000fd5b505050506040513d60208110156115ea57600080fd5b810190808051906020019092919050505073ffffffffffffffffffffffffffffffffffffffff16600160009054906101000a900473ffffffffffffffffffffffffffffffffffffffff1673ffffffffffffffffffffffffffffffffffffffff16141515611752576000809054906101000a900473ffffffffffffffffffffffffffffffffffffffff1673ffffffffffffffffffffffffffffffffffffffff166338cc48316040518163ffffffff167c0100000000000000000000000000000000000000000000000000000000028152600401602060405180830381600087803b1580156116d657600080fd5b505af11580156116ea573d6000803e3d6000fd5b505050506040513d602081101561170057600080fd5b8101908080519060200190929190505050600160006101000a81548173ffffffffffffffffffffffffffffffffffffffff021916908373ffffffffffffffffffffffffffffffffffffffff1602179055505b600160009054906101000a900473ffffffffffffffffffffffffffffffffffffffff1673ffffffffffffffffffffffffffffffffffffffff1663524f3889856040518263ffffffff167c01000000000000000000000000000000000000000000000000000000000281526004018080602001828103825283818151815260200191508051906020019080838360005b838110156117fc5780820151818401526020810190506117e1565b50505050905090810190601f1680156118295780820380516001836020036101000a031916815260200191505b5092505050602060405180830381600087803b15801561184857600080fd5b505af115801561185c573d6000803e3d6000fd5b505050506040513d602081101561187257600080fd5b8101908080519060200190929190505050905062030d403a02670de0b6b3a7640000018111156118a85760006001029150611a53565b600160009054906101000a900473ffffffffffffffffffffffffffffffffffffffff1673ffffffffffffffffffffffffffffffffffffffff1663adf59f9982600087876040518563ffffffff167c0100000000000000000000000000000000000000000000000000000000028152600401808481526020018060200180602001838103835285818151815260200191508051906020019080838360005b83811015611960578082015181840152602081019050611945565b50505050905090810190601f16801561198d5780820380516001836020036101000a031916815260200191505b50838103825284818151815260200191508051906020019080838360005b838110156119c65780820151818401526020810190506119ab565b50505050905090810190601f1680156119f35780820380516001836020036101000a031916815260200191505b50955050505050506020604051808303818588803b158015611a1457600080fd5b505af1158015611a28573d6000803e3d6000fd5b50505050506040513d6020811015611a3f57600080fd5b810190808051906020019092919050505091505b5092915050565b6000813b9050919050565b6000611a6f611a76565b9050919050565b600080611a96731d3b2638a7cc9f2cb3d298a3da7a90b67e5506ed611a5a565b1115611b3757731d3b2638a7cc9f2cb3d298a3da7a90b67e5506ed6000806101000a81548173ffffffffffffffffffffffffffffffffffffffff021916908373ffffffffffffffffffffffffffffffffffffffff160217905550611b2e6040805190810160405280600b81526020017f6574685f6d61696e6e6574000000000000000000000000000000000000000000815250611f05565b60019050611f02565b6000611b5673c03a2615d5efaf5f49f60b7bb6583eaec212fdf1611a5a565b1115611bf75773c03a2615d5efaf5f49f60b7bb6583eaec212fdf16000806101000a81548173ffffffffffffffffffffffffffffffffffffffff021916908373ffffffffffffffffffffffffffffffffffffffff160217905550611bee6040805190810160405280600c81526020017f6574685f726f707374656e330000000000000000000000000000000000000000815250611f05565b60019050611f02565b6000611c1673b7a07bcf2ba2f2703b24c0691b5278999c59ac7e611a5a565b1115611cb75773b7a07bcf2ba2f2703b24c0691b5278999c59ac7e6000806101000a81548173ffffffffffffffffffffffffffffffffffffffff021916908373ffffffffffffffffffffffffffffffffffffffff160217905550611cae6040805190810160405280600981526020017f6574685f6b6f76616e0000000000000000000000000000000000000000000000815250611f05565b60019050611f02565b6000611cd673146500cfd35b22e4a392fe0adc06de1a1368ed48611a5a565b1115611d775773146500cfd35b22e4a392fe0adc06de1a1368ed486000806101000a81548173ffffffffffffffffffffffffffffffffffffffff021916908373ffffffffffffffffffffffffffffffffffffffff160217905550611d6e6040805190810160405280600b81526020017f6574685f72696e6b656279000000000000000000000000000000000000000000815250611f05565b60019050611f02565b6000611d96736f485c8bf6fc43ea212e93bbf8ce046c7f1cb475611a5a565b1115611df957736f485c8bf6fc43ea212e93bbf8ce046c7f1cb4756000806101000a81548173ffffffffffffffffffffffffffffffffffffffff021916908373ffffffffffffffffffffffffffffffffffffffff16021790555060019050611f02565b6000611e187320e12a1f859b3feae5fb2a0a32c18f5a65555bbf611a5a565b1115611e7b577320e12a1f859b3feae5fb2a0a32c18f5a65555bbf6000806101000a81548173ffffffffffffffffffffffffffffffffffffffff021916908373ffffffffffffffffffffffffffffffffffffffff16021790555060019050611f02565b6000611e9a7351efaf4c8b3c9afbd5ab9f4bbc82784ab6ef8faa611a5a565b1115611efd577351efaf4c8b3c9afbd5ab9f4bbc82784ab6ef8faa6000806101000a81548173ffffffffffffffffffffffffffffffffffffffff021916908373ffffffffffffffffffffffffffffffffffffffff16021790555060019050611f02565b600090505b90565b8060029080519060200190611f1b929190611f3e565b5050565b60206040519081016040528060006001811115611f3857fe5b81525090565b828054600181600116156101000203166002900490600052602060002090601f016020900481019282601f10611f7f57805160ff1916838001178555611fad565b82800160010185558215611fad579182015b82811115611fac578251825591602001919060010190611f91565b5b509050611fba9190611fbe565b5090565b611fe091905b80821115611fdc576000816000905550600101611fc4565b5090565b905600a165627a7a723058205847ea0c6108f213865234f321b774c53317b5bbb16bfcb674c143051dc3e4d60029",
  "source": "pragma solidity ^0.4.21;\nimport \"installed_contracts/oraclize-api/contracts/usingOraclize.sol\";\n\ncontract OraclizeTest is usingOraclize {\n\n    address owner;\n    string public ETHUSD;\n    string public BTCUSD;\n\n    event LogInfo(string description);\n    event LogPriceUpdate(string price);\n    event LogPriceUpdate2(string price);\n    event LogUpdate(address indexed _owner, uint indexed _balance);\n    enum oraclizeState { ForEth, ForBitcoin }\n\n    struct oraclizeCallback {\n        oraclizeState oState;\n    }\n\n    mapping (bytes32 => oraclizeCallback) public oraclizeCallbacks;\n\n    // Constructor\n    function OraclizeTest()\n    payable\n    public {\n        owner = msg.sender;\n\n        emit LogUpdate(owner, address(this).balance);\n\n        // Replace the next line with your version:\n        OAR = OraclizeAddrResolverI(0x6f485C8BF6fc43eA212E93BBF8ce046C7f1cb475);\n\n        oraclize_setProof(proofType_TLSNotary | proofStorage_IPFS);\n        update();\n        update2();\n    }\n\n    // Fallback function\n    function()\n    public{\n        revert();\n    }\n\n    function __callback(bytes32 id, string result, bytes proof)\n    public {\n        require(msg.sender == oraclize_cbAddress());\n        oraclizeCallback memory o = oraclizeCallbacks[id];\n        if (o.oState == oraclizeState.ForEth){\n            ETHUSD = result;\n            emit LogPriceUpdate(ETHUSD);\n            update();\n        } \n        if (o.oState == oraclizeState.ForBitcoin){\n            BTCUSD = result;\n            emit LogPriceUpdate2(BTCUSD);\n            update2();\n        } \n\n    }\n\n    function getBalance()\n    public\n    returns (uint _balance) {\n        return address(this).balance;\n    }\n\n    function update()\n    payable\n    public {\n        // Check if we have enough remaining funds\n        if (oraclize_getPrice(\"URL\") > address(this).balance) {\n            emit LogInfo(\"Oraclize ETH query was NOT sent, please add some ETH to cover for the query fee\");\n        } else {\n            emit LogInfo(\"Oraclize ETH query was sent, standing by for the answer..\");\n            bytes32 queryId = oraclize_query(\"URL\",\"json(https://api.coinbase.com/v2/prices/ETH-USD/spot).data.amount\");\n            oraclizeCallbacks[queryId] = oraclizeCallback(oraclizeState.ForEth);\n   \n            // Using XPath to to fetch the right element in the JSON response\n            // oraclize_query(\"URL\", \"json(https://api.coinbase.com/v2/prices/ETH-USD/spot).data.amount\");\n            // oraclize_query(\"URL\", \"json(https://api.coinmarketcap.com/v2/ticker/1/).data.quotes.USD.price\");\n        }\n    }\n\n    function update2()\n    payable\n    public {\n        // Check if we have enough remaining funds\n        if (oraclize_getPrice(\"URL\") > address(this).balance) {\n            emit LogInfo(\"Oraclize BTC query was NOT sent, please add some ETH to cover for the query fee\");\n        } else {\n            emit LogInfo(\"Oraclize BTC query was sent, standing by for the answer..\");\n            bytes32 queryId2 = oraclize_query(\"URL\", \"json(https://api.coinmarketcap.com/v2/ticker/1/).data.quotes.USD.price\");\n            oraclizeCallbacks[queryId2] = oraclizeCallback(oraclizeState.ForBitcoin);\n   \n            // Using XPath to to fetch the right element in the JSON response\n            // oraclize_query(\"URL\", \"json(https://api.coinbase.com/v2/prices/ETH-USD/spot).data.amount\");\n            // oraclize_query(\"URL\", \"json(https://api.coinmarketcap.com/v2/ticker/1/).data.quotes.USD.price\");\n        }\n    }\n\n\n\n}",
  "sourcePath": "/Users/jeffreyyu/Desktop/ClassRelated/CS359B/cs359b-diy-a-new-decentralized-index/oracleDapp/contracts/OraclizeTest.sol",
  "compiler": {
    "name": "solc",
    "version": "0.4.23+commit.124ca40d.Emscripten.clang"
  },
  "schemaVersion": "2.0.0",
  "updatedAt": "2018-05-14T00:30:28.739Z"
}